{
  "_format": "hh-sol-artifact-1",
  "contractName": "CryptoFlexPixelsNFT",
  "sourceName": "contracts/CryptoFlexPixelsNFT.sol",
  "abi": [
    {
      "inputs": [],
      "stateMutability": "nonpayable",
      "type": "constructor"
    },
    {
      "anonymous": false,
      "inputs": [
        {
          "indexed": true,
          "internalType": "address",
          "name": "owner",
          "type": "address"
        },
        {
          "indexed": true,
          "internalType": "address",
          "name": "approved",
          "type": "address"
        },
        {
          "indexed": true,
          "internalType": "uint256",
          "name": "tokenId",
          "type": "uint256"
        }
      ],
      "name": "Approval",
      "type": "event"
    },
    {
      "anonymous": false,
      "inputs": [
        {
          "indexed": true,
          "internalType": "address",
          "name": "owner",
          "type": "address"
        },
        {
          "indexed": true,
          "internalType": "address",
          "name": "operator",
          "type": "address"
        },
        {
          "indexed": false,
          "internalType": "bool",
          "name": "approved",
          "type": "bool"
        }
      ],
      "name": "ApprovalForAll",
      "type": "event"
    },
    {
      "anonymous": false,
      "inputs": [
        {
          "indexed": true,
          "internalType": "address",
          "name": "previousOwner",
          "type": "address"
        },
        {
          "indexed": true,
          "internalType": "address",
          "name": "newOwner",
          "type": "address"
        }
      ],
      "name": "OwnershipTransferred",
      "type": "event"
    },
    {
      "anonymous": false,
      "inputs": [
        {
          "indexed": true,
          "internalType": "address",
          "name": "from",
          "type": "address"
        },
        {
          "indexed": true,
          "internalType": "address",
          "name": "to",
          "type": "address"
        },
        {
          "indexed": true,
          "internalType": "uint256",
          "name": "tokenId",
          "type": "uint256"
        }
      ],
      "name": "Transfer",
      "type": "event"
    },
    {
      "anonymous": false,
      "inputs": [
        {
          "indexed": true,
          "internalType": "address",
          "name": "createdBy",
          "type": "address"
        },
        {
          "indexed": true,
          "internalType": "uint256",
          "name": "tokenId",
          "type": "uint256"
        },
        {
          "indexed": true,
          "internalType": "uint256",
          "name": "tokensLeft",
          "type": "uint256"
        }
      ],
      "name": "createdGiveAwayNFT",
      "type": "event"
    },
    {
      "anonymous": false,
      "inputs": [
        {
          "indexed": true,
          "internalType": "address",
          "name": "createdBy",
          "type": "address"
        },
        {
          "indexed": true,
          "internalType": "uint256",
          "name": "tokenId",
          "type": "uint256"
        },
        {
          "indexed": true,
          "internalType": "uint256",
          "name": "tokensLeft",
          "type": "uint256"
        }
      ],
      "name": "createdRandomNFT",
      "type": "event"
    },
    {
      "inputs": [
        {
          "internalType": "address",
          "name": "",
          "type": "address"
        }
      ],
      "name": "addressToMintCount",
      "outputs": [
        {
          "internalType": "uint256",
          "name": "",
          "type": "uint256"
        }
      ],
      "stateMutability": "view",
      "type": "function"
    },
    {
      "inputs": [
        {
          "internalType": "address",
          "name": "to",
          "type": "address"
        },
        {
          "internalType": "uint256",
          "name": "tokenId",
          "type": "uint256"
        }
      ],
      "name": "approve",
      "outputs": [],
      "stateMutability": "nonpayable",
      "type": "function"
    },
    {
      "inputs": [
        {
          "internalType": "uint256",
          "name": "",
          "type": "uint256"
        }
      ],
      "name": "availableTokens",
      "outputs": [
        {
          "internalType": "uint256",
          "name": "",
          "type": "uint256"
        }
      ],
      "stateMutability": "view",
      "type": "function"
    },
    {
      "inputs": [
        {
          "internalType": "address",
          "name": "owner",
          "type": "address"
        }
      ],
      "name": "balanceOf",
      "outputs": [
        {
          "internalType": "uint256",
          "name": "",
          "type": "uint256"
        }
      ],
      "stateMutability": "view",
      "type": "function"
    },
    {
      "inputs": [
        {
          "internalType": "uint256",
          "name": "_start",
          "type": "uint256"
        },
        {
          "internalType": "uint256",
          "name": "_end",
          "type": "uint256"
        }
      ],
      "name": "batchCreateGiveAway",
      "outputs": [],
      "stateMutability": "nonpayable",
      "type": "function"
    },
    {
      "inputs": [],
      "name": "create",
      "outputs": [
        {
          "internalType": "uint256",
          "name": "",
          "type": "uint256"
        }
      ],
      "stateMutability": "payable",
      "type": "function"
    },
    {
      "inputs": [
        {
          "internalType": "uint256",
          "name": "tokenId",
          "type": "uint256"
        }
      ],
      "name": "createGiveAway",
      "outputs": [],
      "stateMutability": "nonpayable",
      "type": "function"
    },
    {
      "inputs": [
        {
          "internalType": "uint256",
          "name": "tokenId",
          "type": "uint256"
        }
      ],
      "name": "getApproved",
      "outputs": [
        {
          "internalType": "address",
          "name": "",
          "type": "address"
        }
      ],
      "stateMutability": "view",
      "type": "function"
    },
    {
      "inputs": [],
      "name": "getAvailableTokensCount",
      "outputs": [
        {
          "internalType": "uint256",
          "name": "",
          "type": "uint256"
        }
      ],
      "stateMutability": "view",
      "type": "function"
    },
    {
      "inputs": [],
      "name": "getAvailableTokensList",
      "outputs": [
        {
          "internalType": "uint256[]",
          "name": "",
          "type": "uint256[]"
        }
      ],
      "stateMutability": "view",
      "type": "function"
    },
    {
      "inputs": [],
      "name": "getMintFee",
      "outputs": [
        {
          "internalType": "uint256",
          "name": "",
          "type": "uint256"
        }
      ],
      "stateMutability": "view",
      "type": "function"
    },
    {
      "inputs": [
        {
          "internalType": "address",
          "name": "owner",
          "type": "address"
        },
        {
          "internalType": "address",
          "name": "operator",
          "type": "address"
        }
      ],
      "name": "isApprovedForAll",
      "outputs": [
        {
          "internalType": "bool",
          "name": "",
          "type": "bool"
        }
      ],
      "stateMutability": "view",
      "type": "function"
    },
    {
      "inputs": [],
      "name": "name",
      "outputs": [
        {
          "internalType": "string",
          "name": "",
          "type": "string"
        }
      ],
      "stateMutability": "view",
      "type": "function"
    },
    {
      "inputs": [],
      "name": "owner",
      "outputs": [
        {
          "internalType": "address",
          "name": "",
          "type": "address"
        }
      ],
      "stateMutability": "view",
      "type": "function"
    },
    {
      "inputs": [
        {
          "internalType": "uint256",
          "name": "tokenId",
          "type": "uint256"
        }
      ],
      "name": "ownerOf",
      "outputs": [
        {
          "internalType": "address",
          "name": "",
          "type": "address"
        }
      ],
      "stateMutability": "view",
      "type": "function"
    },
    {
      "inputs": [
        {
          "internalType": "uint256",
          "name": "_start",
          "type": "uint256"
        },
        {
          "internalType": "uint256",
          "name": "_end",
          "type": "uint256"
        }
      ],
      "name": "populateAvailableTokens",
      "outputs": [],
      "stateMutability": "nonpayable",
      "type": "function"
    },
    {
      "inputs": [],
      "name": "renounceOwnership",
      "outputs": [],
      "stateMutability": "nonpayable",
      "type": "function"
    },
    {
      "inputs": [
        {
          "internalType": "uint256",
          "name": "_tokenId",
          "type": "uint256"
        },
        {
          "internalType": "uint256",
          "name": "_salePrice",
          "type": "uint256"
        }
      ],
      "name": "royaltyInfo",
      "outputs": [
        {
          "internalType": "address",
          "name": "receiver",
          "type": "address"
        },
        {
          "internalType": "uint256",
          "name": "royaltyAmount",
          "type": "uint256"
        }
      ],
      "stateMutability": "view",
      "type": "function"
    },
    {
      "inputs": [
        {
          "internalType": "address",
          "name": "from",
          "type": "address"
        },
        {
          "internalType": "address",
          "name": "to",
          "type": "address"
        },
        {
          "internalType": "uint256",
          "name": "tokenId",
          "type": "uint256"
        }
      ],
      "name": "safeTransferFrom",
      "outputs": [],
      "stateMutability": "nonpayable",
      "type": "function"
    },
    {
      "inputs": [
        {
          "internalType": "address",
          "name": "from",
          "type": "address"
        },
        {
          "internalType": "address",
          "name": "to",
          "type": "address"
        },
        {
          "internalType": "uint256",
          "name": "tokenId",
          "type": "uint256"
        },
        {
          "internalType": "bytes",
          "name": "_data",
          "type": "bytes"
        }
      ],
      "name": "safeTransferFrom",
      "outputs": [],
      "stateMutability": "nonpayable",
      "type": "function"
    },
    {
      "inputs": [
        {
          "internalType": "address",
          "name": "operator",
          "type": "address"
        },
        {
          "internalType": "bool",
          "name": "approved",
          "type": "bool"
        }
      ],
      "name": "setApprovalForAll",
      "outputs": [],
      "stateMutability": "nonpayable",
      "type": "function"
    },
    {
      "inputs": [
        {
          "internalType": "string",
          "name": "_newBaseURI",
          "type": "string"
        }
      ],
      "name": "setBaseURI",
      "outputs": [],
      "stateMutability": "nonpayable",
      "type": "function"
    },
    {
      "inputs": [
        {
          "internalType": "bytes4",
          "name": "interfaceId",
          "type": "bytes4"
        }
      ],
      "name": "supportsInterface",
      "outputs": [
        {
          "internalType": "bool",
          "name": "",
          "type": "bool"
        }
      ],
      "stateMutability": "view",
      "type": "function"
    },
    {
      "inputs": [],
      "name": "symbol",
      "outputs": [
        {
          "internalType": "string",
          "name": "",
          "type": "string"
        }
      ],
      "stateMutability": "view",
      "type": "function"
    },
    {
      "inputs": [
        {
          "internalType": "uint256",
          "name": "tokenId",
          "type": "uint256"
        }
      ],
      "name": "tokenURI",
      "outputs": [
        {
          "internalType": "string",
          "name": "",
          "type": "string"
        }
      ],
      "stateMutability": "view",
      "type": "function"
    },
    {
      "inputs": [
        {
          "internalType": "address",
          "name": "from",
          "type": "address"
        },
        {
          "internalType": "address",
          "name": "to",
          "type": "address"
        },
        {
          "internalType": "uint256",
          "name": "tokenId",
          "type": "uint256"
        }
      ],
      "name": "transferFrom",
      "outputs": [],
      "stateMutability": "nonpayable",
      "type": "function"
    },
    {
      "inputs": [
        {
          "internalType": "address",
          "name": "newOwner",
          "type": "address"
        }
      ],
      "name": "transferOwnership",
      "outputs": [],
      "stateMutability": "nonpayable",
      "type": "function"
    },
    {
      "inputs": [],
      "name": "withdraw",
      "outputs": [],
      "stateMutability": "payable",
      "type": "function"
    }
  ],
  "bytecode": "0x600d805461ffff191690556000600e5560c0604052601460808190527f697066733a2f2f6f75776f656972756f6961752f00000000000000000000000060a09081526200005091600f91906200020d565b503480156200005e57600080fd5b50604080518082018252601081526f43727970746f466c6578506978656c7360801b60208083019182528351808501909452600684526510d19413919560d21b908401528151919291620000b5916000916200020d565b508051620000cb9060019060208401906200020d565b505050620000e8620000e26200012760201b60201c565b6200012b565b620000fa63152a902d60e11b6200017d565b6200010b62357ab560e91b6200017d565b6200012162000119620001d8565b6005620001e7565b62000327565b3390565b600a80546001600160a01b038381166001600160a01b0319831681179093556040519116919082907f8be0079c531659141344cd1fd0a4f28419497f9722a3daafe3b4186f6b6457e090600090a35050565b6001600160e01b03198082161415620001b35760405162461bcd60e51b8152600401620001aa90620002b3565b60405180910390fd5b6001600160e01b0319166000908152600760205260409020805460ff19166001179055565b600a546001600160a01b031690565b600880546001600160a01b0319166001600160a01b039390931692909217909155600955565b8280546200021b90620002ea565b90600052602060002090601f0160209004810192826200023f57600085556200028a565b82601f106200025a57805160ff19168380011785556200028a565b828001600101855582156200028a579182015b828111156200028a5782518255916020019190600101906200026d565b50620002989291506200029c565b5090565b5b808211156200029857600081556001016200029d565b6020808252601c908201527f4552433136353a20696e76616c696420696e7465726661636520696400000000604082015260600190565b600281046001821680620002ff57607f821691505b602082108114156200032157634e487b7160e01b600052602260045260246000fd5b50919050565b61243980620003376000396000f3fe6080604052600436106101475760003560e01c806301ffc9a71461014c57806306fdde0314610182578063081812fc146101a4578063095ea7b3146101d157806323b872dd146101f35780632a55205a146102135780632dcd52f2146102415780633ccfd60b1461026357806342842e0e1461026b57806355f804b31461028b5780636352211e146102ab57806370a08231146102cb578063715018a6146102eb57806374894b79146103005780637a5caab3146103225780638a94a61a146103375780638da5cb5b1461035757806395d89b411461036c578063a22cb46514610381578063ad64d068146103a1578063b88d4fde146103c1578063c87b56dd146103e1578063d66fba4714610401578063e985e9c514610421578063efc81a8c14610441578063f2fde38b14610449578063f75da1b314610469578063fa21bd3e14610489575b600080fd5b34801561015857600080fd5b5061016c610167366004611a83565b6104a9565b6040516101799190611c65565b60405180910390f35b34801561018e57600080fd5b506101976104bc565b6040516101799190611c70565b3480156101b057600080fd5b506101c46101bf366004611b00565b61054e565b6040516101799190611bb7565b3480156101dd57600080fd5b506101f16101ec366004611a5a565b61059a565b005b3480156101ff57600080fd5b506101f161020e36600461196d565b610632565b34801561021f57600080fd5b5061023361022e366004611b18565b61066a565b604051610179929190611c08565b34801561024d57600080fd5b5061025661069f565b6040516101799190612268565b6101f16106a5565b34801561027757600080fd5b506101f161028636600461196d565b610727565b34801561029757600080fd5b506101f16102a6366004611abb565b610742565b3480156102b757600080fd5b506101c46102c6366004611b00565b610798565b3480156102d757600080fd5b506102566102e636600461192a565b6107cd565b3480156102f757600080fd5b506101f1610811565b34801561030c57600080fd5b5061031561085c565b6040516101799190611c21565b34801561032e57600080fd5b506102566108b3565b34801561034357600080fd5b506101f1610352366004611b18565b61090e565b34801561036357600080fd5b506101c4610971565b34801561037857600080fd5b50610197610980565b34801561038d57600080fd5b506101f161039c366004611a20565b61098f565b3480156103ad57600080fd5b506102566103bc366004611b00565b610a5d565b3480156103cd57600080fd5b506101f16103dc3660046119a8565b610a7e565b3480156103ed57600080fd5b506101976103fc366004611b00565b610abd565b34801561040d57600080fd5b506101f161041c366004611b00565b610bde565b34801561042d57600080fd5b5061016c61043c366004611944565b610d65565b610256610d93565b34801561045557600080fd5b506101f161046436600461192a565b610f95565b34801561047557600080fd5b5061025661048436600461192a565b611003565b34801561049557600080fd5b506101f16104a4366004611b18565b611015565b60006104b4826110ee565b90505b919050565b6060600080546104cb906122ff565b80601f01602080910402602001604051908101604052809291908181526020018280546104f7906122ff565b80156105445780601f1061051957610100808354040283529160200191610544565b820191906000526020600020905b81548152906001019060200180831161052757829003601f168201915b5050505050905090565b60006105598261111f565b61057e5760405162461bcd60e51b81526004016105759061205e565b60405180910390fd5b506000908152600460205260409020546001600160a01b031690565b60006105a582610798565b9050806001600160a01b0316836001600160a01b031614156105d95760405162461bcd60e51b815260040161057590612177565b806001600160a01b03166105eb61113c565b6001600160a01b0316148061060757506106078161043c61113c565b6106235760405162461bcd60e51b815260040161057590611eed565b61062d8383611140565b505050565b61064361063d61113c565b826111ae565b61065f5760405162461bcd60e51b8152600401610575906121b8565b61062d83838361122b565b6008546009546001600160a01b039091169060009060649061068c908561229d565b6106969190612289565b90509250929050565b600c5490565b6106ad61113c565b6001600160a01b03166106be610971565b6001600160a01b0316146106e45760405162461bcd60e51b8152600401610575906120aa565b6106ec610971565b6001600160a01b03166108fc479081150290604051600060405180830381858888f19350505050158015610724573d6000803e3d6000fd5b50565b61062d83838360405180602001604052806000815250610a7e565b61074a61113c565b6001600160a01b031661075b610971565b6001600160a01b0316146107815760405162461bcd60e51b8152600401610575906120aa565b805161079490600f90602084019061180b565b5050565b6000818152600260205260408120546001600160a01b0316806104b45760405162461bcd60e51b815260040161057590611f8f565b60006001600160a01b0382166107f55760405162461bcd60e51b815260040161057590611f45565b506001600160a01b031660009081526003602052604090205490565b61081961113c565b6001600160a01b031661082a610971565b6001600160a01b0316146108505760405162461bcd60e51b8152600401610575906120aa565b61085a6000611346565b565b6060600c80548060200260200160405190810160405280929190818152602001828054801561054457602002820191906000526020600020905b815481526020019060010190808311610896575050505050905090565b600c5460009066038d7ea4c68000906702c68af0bb1400009083836124b66108db82866122bc565b6108e7856124b76122bc565b6108f1919061229d565b6108fb9190612289565b6109059190612271565b94505050505090565b61091661113c565b6001600160a01b0316610927610971565b6001600160a01b03161461094d5760405162461bcd60e51b8152600401610575906120aa565b815b81811161062d5761095f81610bde565b806109698161235c565b91505061094f565b600a546001600160a01b031690565b6060600180546104cb906122ff565b61099761113c565b6001600160a01b0316826001600160a01b031614156109c85760405162461bcd60e51b815260040161057590611e37565b80600560006109d561113c565b6001600160a01b03908116825260208083019390935260409182016000908120918716808252919093529120805460ff191692151592909217909155610a1961113c565b6001600160a01b03167f17307eab39ab6107e8899845ad3d59bd9653f200f220920489ca2b5937696c3183604051610a519190611c65565b60405180910390a35050565b600c8181548110610a6d57600080fd5b600091825260209091200154905081565b610a8f610a8961113c565b836111ae565b610aab5760405162461bcd60e51b8152600401610575906121b8565b610ab784848484611398565b50505050565b6060610ac88261111f565b610ae45760405162461bcd60e51b81526004016105759061200d565b60008281526006602052604081208054610afd906122ff565b80601f0160208091040260200160405190810160405280929190818152602001828054610b29906122ff565b8015610b765780601f10610b4b57610100808354040283529160200191610b76565b820191906000526020600020905b815481529060010190602001808311610b5957829003601f168201915b505050505090506000610b876113cb565b9050805160001415610b9b575090506104b7565b815115610bcd578082604051602001610bb5929190611b65565b604051602081830303815290604052925050506104b7565b610bd6846113da565b949350505050565b610be661113c565b6001600160a01b0316610bf7610971565b6001600160a01b031614610c1d5760405162461bcd60e51b8152600401610575906120aa565b600d5461025961ffff90911610610c465760405162461bcd60e51b815260040161057590612209565b610c57610c51610971565b8261145d565b600c8054610c67906001906122bc565b81548110610c8557634e487b7160e01b600052603260045260246000fd5b9060005260206000200154600c600183610c9f91906122bc565b81548110610cbd57634e487b7160e01b600052603260045260246000fd5b600091825260209091200155600c805480610ce857634e487b7160e01b600052603160045260246000fd5b6000828152602081208201600019908101829055909101909155600d805461ffff1691610d148361233a565b825461ffff9182166101009390930a928302919092021990911617905550600c54604051829033907f8587227cba5e4c595b198905190a948a31044ca1904827973a8763a7ab31ccbf90600090a450565b6001600160a01b03918216600090815260056020908152604080832093909416825291909152205460ff1690565b336000908152600b602052604081205461271011610dc35760405162461bcd60e51b815260040161057590611cab565b600c546124b7811115610de85760405162461bcd60e51b815260040161057590611eb6565b60008111610e085760405162461bcd60e51b815260040161057590611c83565b610e106108b3565b341015610e2f5760405162461bcd60e51b81526004016105759061223b565b600081423384604051602001610e4793929190611b94565b6040516020818303038152906040528051906020012060001c610e6a9190612377565b90506000600c8281548110610e8f57634e487b7160e01b600052603260045260246000fd5b90600052602060002001549050610ea6338261145d565b600c610eb36001856122bc565b81548110610ed157634e487b7160e01b600052603260045260246000fd5b9060005260206000200154600c8381548110610efd57634e487b7160e01b600052603260045260246000fd5b600091825260209091200155600c805480610f2857634e487b7160e01b600052603160045260246000fd5b600082815260208082208301600019908101839055909201909255338252600b905260408120805491610f5a8361235c565b90915550506040518390829033907fe9d74c069bdd089c51c59f87e56dd8a7c35a793fdd64890c9178b516fc43379290600090a49250505090565b610f9d61113c565b6001600160a01b0316610fae610971565b6001600160a01b031614610fd45760405162461bcd60e51b8152600401610575906120aa565b6001600160a01b038116610ffa5760405162461bcd60e51b815260040161057590611d48565b61072481611346565b600b6020526000908152604090205481565b61101d61113c565b6001600160a01b031661102e610971565b6001600160a01b0316146110545760405162461bcd60e51b8152600401610575906120aa565b8181600e546110639190612271565b61106d91906122bc565b611078906001612271565b600e819055612710101561109e5760405162461bcd60e51b815260040161057590611dc4565b815b81811161062d57600c80546001810182556000919091527fdf6966c971051c3d54ec59162606531493a51404a002842f56009d7e5cf4a8c701819055806110e68161235c565b9150506110a0565b60006110f982611477565b806104b45750506001600160e01b03191660009081526007602052604090205460ff1690565b6000908152600260205260409020546001600160a01b0316151590565b3390565b600081815260046020526040902080546001600160a01b0319166001600160a01b038416908117909155819061117582610798565b6001600160a01b03167f8c5be1e5ebec7d5bd14f71427d1e84f3dd0314c0f7b2291e5b200ac8c7c3b92560405160405180910390a45050565b60006111b98261111f565b6111d55760405162461bcd60e51b815260040161057590611e6a565b60006111e083610798565b9050806001600160a01b0316846001600160a01b0316148061121b5750836001600160a01b03166112108461054e565b6001600160a01b0316145b80610bd65750610bd68185610d65565b826001600160a01b031661123e82610798565b6001600160a01b0316146112645760405162461bcd60e51b8152600401610575906120df565b6001600160a01b03821661128a5760405162461bcd60e51b815260040161057590611df3565b61129583838361062d565b6112a0600082611140565b6001600160a01b03831660009081526003602052604081208054600192906112c99084906122bc565b90915550506001600160a01b03821660009081526003602052604081208054600192906112f7908490612271565b909155505060008181526002602052604080822080546001600160a01b0319166001600160a01b0386811691821790925591518493918716916000805160206123e483398151915291a4505050565b600a80546001600160a01b038381166001600160a01b0319831681179093556040519116919082907f8be0079c531659141344cd1fd0a4f28419497f9722a3daafe3b4186f6b6457e090600090a35050565b6113a384848461122b565b6113af848484846114b7565b610ab75760405162461bcd60e51b815260040161057590611cf6565b6060600f80546104cb906122ff565b60606113e58261111f565b6114015760405162461bcd60e51b815260040161057590612128565b600061140b6113cb565b9050600081511161142b5760405180602001604052806000815250611456565b80611435846115d2565b604051602001611446929190611b65565b6040516020818303038152906040525b9392505050565b6107948282604051806020016040528060008152506116ec565b60006001600160e01b031982166380ac58cd60e01b14806114a857506001600160e01b03198216635b5e139f60e01b145b806104b457506104b48261171f565b60006114cb846001600160a01b0316611738565b156115c757836001600160a01b031663150b7a026114e761113c565b8786866040518563ffffffff1660e01b81526004016115099493929190611bcb565b602060405180830381600087803b15801561152357600080fd5b505af1925050508015611553575060408051601f3d908101601f1916820190925261155091810190611a9f565b60015b6115ad573d808015611581576040519150601f19603f3d011682016040523d82523d6000602084013e611586565b606091505b5080516115a55760405162461bcd60e51b815260040161057590611cf6565b805181602001fd5b6001600160e01b031916630a85bd0160e11b149050610bd6565b506001949350505050565b6060816115f757506040805180820190915260018152600360fc1b60208201526104b7565b8160005b8115611621578061160b8161235c565b915061161a9050600a83612289565b91506115fb565b6000816001600160401b0381111561164957634e487b7160e01b600052604160045260246000fd5b6040519080825280601f01601f191660200182016040528015611673576020820181803683370190505b5090505b8415610bd6576116886001836122bc565b9150611695600a86612377565b6116a0906030612271565b60f81b8183815181106116c357634e487b7160e01b600052603260045260246000fd5b60200101906001600160f81b031916908160001a9053506116e5600a86612289565b9450611677565b6116f6838361173e565b61170360008484846114b7565b61062d5760405162461bcd60e51b815260040161057590611cf6565b6001600160e01b031981166301ffc9a760e01b14919050565b3b151590565b6001600160a01b0382166117645760405162461bcd60e51b815260040161057590611fd8565b61176d8161111f565b1561178a5760405162461bcd60e51b815260040161057590611d8e565b6117966000838361062d565b6001600160a01b03821660009081526003602052604081208054600192906117bf908490612271565b909155505060008181526002602052604080822080546001600160a01b0319166001600160a01b03861690811790915590518392906000805160206123e4833981519152908290a45050565b828054611817906122ff565b90600052602060002090601f016020900481019282611839576000855561187f565b82601f1061185257805160ff191683800117855561187f565b8280016001018555821561187f579182015b8281111561187f578251825591602001919060010190611864565b5061188b92915061188f565b5090565b5b8082111561188b5760008155600101611890565b60006001600160401b03808411156118be576118be6123b7565b604051601f8501601f1916810160200182811182821017156118e2576118e26123b7565b6040528481529150818385018610156118fa57600080fd5b8484602083013760006020868301015250509392505050565b80356001600160a01b03811681146104b757600080fd5b60006020828403121561193b578081fd5b61145682611913565b60008060408385031215611956578081fd5b61195f83611913565b915061069660208401611913565b600080600060608486031215611981578081fd5b61198a84611913565b925061199860208501611913565b9150604084013590509250925092565b600080600080608085870312156119bd578081fd5b6119c685611913565b93506119d460208601611913565b92506040850135915060608501356001600160401b038111156119f5578182fd5b8501601f81018713611a05578182fd5b611a14878235602084016118a4565b91505092959194509250565b60008060408385031215611a32578182fd5b611a3b83611913565b915060208301358015158114611a4f578182fd5b809150509250929050565b60008060408385031215611a6c578182fd5b611a7583611913565b946020939093013593505050565b600060208284031215611a94578081fd5b8135611456816123cd565b600060208284031215611ab0578081fd5b8151611456816123cd565b600060208284031215611acc578081fd5b81356001600160401b03811115611ae1578182fd5b8201601f81018413611af1578182fd5b610bd6848235602084016118a4565b600060208284031215611b11578081fd5b5035919050565b60008060408385031215611b2a578182fd5b50508035926020909101359150565b60008151808452611b518160208601602086016122d3565b601f01601f19169290920160200192915050565b60008351611b778184602088016122d3565b835190830190611b8b8183602088016122d3565b01949350505050565b92835260609190911b6001600160601b0319166020830152603482015260540190565b6001600160a01b0391909116815260200190565b6001600160a01b0385811682528416602082015260408101839052608060608201819052600090611bfe90830184611b39565b9695505050505050565b6001600160a01b03929092168252602082015260400190565b6020808252825182820181905260009190848201906040850190845b81811015611c5957835183529284019291840191600101611c3d565b50909695505050505050565b901515815260200190565b6000602082526114566020830184611b39565b6020808252600e908201526d139bc81d1bdad95b9cc81b19599d60921b604082015260600190565b6020808252602b908201527f416c7265616479206d696e746564206d617820616d6f756e7420666f7220746860408201526a697320616464726573732160a81b606082015260800190565b60208082526032908201527f4552433732313a207472616e7366657220746f206e6f6e20455243373231526560408201527131b2b4bb32b91034b6b83632b6b2b73a32b960711b606082015260800190565b60208082526026908201527f4f776e61626c653a206e6577206f776e657220697320746865207a65726f206160408201526564647265737360d01b606082015260800190565b6020808252601c908201527b115490cdcc8c4e881d1bdad95b88185b1c9958591e481b5a5b9d195960221b604082015260600190565b6020808252601590820152744d617820746f6b656e7320706f70756c617465642160581b604082015260600190565b60208082526024908201527f4552433732313a207472616e7366657220746f20746865207a65726f206164646040820152637265737360e01b606082015260800190565b60208082526019908201527822a9219b99189d1030b8383937bb32903a379031b0b63632b960391b604082015260600190565b6020808252602c908201527f4552433732313a206f70657261746f7220717565727920666f72206e6f6e657860408201526b34b9ba32b73a103a37b5b2b760a11b606082015260800190565b6020808252601f908201527f476976656177617920746f6b656e73206e6f74206d696e746564207965742100604082015260600190565b60208082526038908201527f4552433732313a20617070726f76652063616c6c6572206973206e6f74206f776040820152771b995c881b9bdc88185c1c1c9bdd995908199bdc88185b1b60421b606082015260800190565b6020808252602a908201527f4552433732313a2062616c616e636520717565727920666f7220746865207a65604082015269726f206164647265737360b01b606082015260800190565b60208082526029908201527f4552433732313a206f776e657220717565727920666f72206e6f6e657869737460408201526832b73a103a37b5b2b760b91b606082015260800190565b6020808252818101527f4552433732313a206d696e7420746f20746865207a65726f2061646472657373604082015260600190565b60208082526031908201527f45524337323155524953746f726167653a2055524920717565727920666f72206040820152703737b732bc34b9ba32b73a103a37b5b2b760791b606082015260800190565b6020808252602c908201527f4552433732313a20617070726f76656420717565727920666f72206e6f6e657860408201526b34b9ba32b73a103a37b5b2b760a11b606082015260800190565b6020808252818101527f4f776e61626c653a2063616c6c6572206973206e6f7420746865206f776e6572604082015260600190565b60208082526029908201527f4552433732313a207472616e73666572206f6620746f6b656e2074686174206960408201526839903737ba1037bbb760b91b606082015260800190565b6020808252602f908201527f4552433732314d657461646174613a2055524920717565727920666f72206e6f60408201526e3732bc34b9ba32b73a103a37b5b2b760891b606082015260800190565b60208082526021908201527f4552433732313a20617070726f76616c20746f2063757272656e74206f776e656040820152603960f91b606082015260800190565b60208082526031908201527f4552433732313a207472616e736665722063616c6c6572206973206e6f74206f6040820152701ddb995c881b9bdc88185c1c1c9bdd9959607a1b606082015260800190565b602080825260189082015277105b1b0819da5d99585dd85e481391951cc81b5a5b9d195960421b604082015260600190565b602080825260139082015272496e73756666696369656e742066756e64732160681b604082015260600190565b90815260200190565b600082198211156122845761228461238b565b500190565b600082612298576122986123a1565b500490565b60008160001904831182151516156122b7576122b761238b565b500290565b6000828210156122ce576122ce61238b565b500390565b60005b838110156122ee5781810151838201526020016122d6565b83811115610ab75750506000910152565b60028104600182168061231357607f821691505b6020821081141561233457634e487b7160e01b600052602260045260246000fd5b50919050565b600061ffff808316818114156123525761235261238b565b6001019392505050565b60006000198214156123705761237061238b565b5060010190565b600082612386576123866123a1565b500690565b634e487b7160e01b600052601160045260246000fd5b634e487b7160e01b600052601260045260246000fd5b634e487b7160e01b600052604160045260246000fd5b6001600160e01b03198116811461072457600080fdfeddf252ad1be2c89b69c2b068fc378daa952ba7f163c4a11628f55a4df523b3efa26469706673582212209567998b22b116df8d8550ebcf76b90092b9d93e64a4150e85fc06974415b24064736f6c63430008000033",
  "linkReferences": {},
  "deployedLinkReferences": {}
}