{
  "_format": "hh-sol-artifact-1",
  "contractName": "CryptoFlexPixelsNFT",
  "sourceName": "contracts/CryptoFlexPixelsNFT.sol",
  "abi": [
    {
      "inputs": [],
      "stateMutability": "nonpayable",
      "type": "constructor"
    },
    {
      "anonymous": false,
      "inputs": [
        {
          "indexed": true,
          "internalType": "address",
          "name": "owner",
          "type": "address"
        },
        {
          "indexed": true,
          "internalType": "address",
          "name": "approved",
          "type": "address"
        },
        {
          "indexed": true,
          "internalType": "uint256",
          "name": "tokenId",
          "type": "uint256"
        }
      ],
      "name": "Approval",
      "type": "event"
    },
    {
      "anonymous": false,
      "inputs": [
        {
          "indexed": true,
          "internalType": "address",
          "name": "owner",
          "type": "address"
        },
        {
          "indexed": true,
          "internalType": "address",
          "name": "operator",
          "type": "address"
        },
        {
          "indexed": false,
          "internalType": "bool",
          "name": "approved",
          "type": "bool"
        }
      ],
      "name": "ApprovalForAll",
      "type": "event"
    },
    {
      "anonymous": false,
      "inputs": [
        {
          "indexed": true,
          "internalType": "address",
          "name": "previousOwner",
          "type": "address"
        },
        {
          "indexed": true,
          "internalType": "address",
          "name": "newOwner",
          "type": "address"
        }
      ],
      "name": "OwnershipTransferred",
      "type": "event"
    },
    {
      "anonymous": false,
      "inputs": [
        {
          "indexed": true,
          "internalType": "address",
          "name": "from",
          "type": "address"
        },
        {
          "indexed": true,
          "internalType": "address",
          "name": "to",
          "type": "address"
        },
        {
          "indexed": true,
          "internalType": "uint256",
          "name": "tokenId",
          "type": "uint256"
        }
      ],
      "name": "Transfer",
      "type": "event"
    },
    {
      "anonymous": false,
      "inputs": [
        {
          "indexed": true,
          "internalType": "address",
          "name": "createdBy",
          "type": "address"
        },
        {
          "indexed": true,
          "internalType": "uint256",
          "name": "tokenId",
          "type": "uint256"
        },
        {
          "indexed": true,
          "internalType": "uint256",
          "name": "tokensLeft",
          "type": "uint256"
        }
      ],
      "name": "createdGiveAwayNFT",
      "type": "event"
    },
    {
      "anonymous": false,
      "inputs": [
        {
          "indexed": true,
          "internalType": "address",
          "name": "createdBy",
          "type": "address"
        },
        {
          "indexed": true,
          "internalType": "uint256",
          "name": "tokenId",
          "type": "uint256"
        },
        {
          "indexed": true,
          "internalType": "uint256",
          "name": "tokensLeft",
          "type": "uint256"
        }
      ],
      "name": "createdRandomNFT",
      "type": "event"
    },
    {
      "inputs": [
        {
          "internalType": "address",
          "name": "",
          "type": "address"
        }
      ],
      "name": "addressToMintCount",
      "outputs": [
        {
          "internalType": "uint8",
          "name": "",
          "type": "uint8"
        }
      ],
      "stateMutability": "view",
      "type": "function"
    },
    {
      "inputs": [
        {
          "internalType": "address",
          "name": "to",
          "type": "address"
        },
        {
          "internalType": "uint256",
          "name": "tokenId",
          "type": "uint256"
        }
      ],
      "name": "approve",
      "outputs": [],
      "stateMutability": "nonpayable",
      "type": "function"
    },
    {
      "inputs": [
        {
          "internalType": "uint256",
          "name": "",
          "type": "uint256"
        }
      ],
      "name": "availableTokens",
      "outputs": [
        {
          "internalType": "uint16",
          "name": "",
          "type": "uint16"
        }
      ],
      "stateMutability": "view",
      "type": "function"
    },
    {
      "inputs": [
        {
          "internalType": "address",
          "name": "owner",
          "type": "address"
        }
      ],
      "name": "balanceOf",
      "outputs": [
        {
          "internalType": "uint256",
          "name": "",
          "type": "uint256"
        }
      ],
      "stateMutability": "view",
      "type": "function"
    },
    {
      "inputs": [],
      "name": "baseURI",
      "outputs": [
        {
          "internalType": "string",
          "name": "",
          "type": "string"
        }
      ],
      "stateMutability": "view",
      "type": "function"
    },
    {
      "inputs": [
        {
          "internalType": "uint16[]",
          "name": "tokenIds",
          "type": "uint16[]"
        }
      ],
      "name": "batchCreateGiveAway",
      "outputs": [],
      "stateMutability": "nonpayable",
      "type": "function"
    },
    {
      "inputs": [],
      "name": "create",
      "outputs": [
        {
          "internalType": "uint256",
          "name": "",
          "type": "uint256"
        }
      ],
      "stateMutability": "payable",
      "type": "function"
    },
    {
      "inputs": [
        {
          "internalType": "uint16",
          "name": "tokenId",
          "type": "uint16"
        }
      ],
      "name": "createGiveAway",
      "outputs": [],
      "stateMutability": "nonpayable",
      "type": "function"
    },
    {
      "inputs": [
        {
          "internalType": "uint256",
          "name": "tokenId",
          "type": "uint256"
        }
      ],
      "name": "getApproved",
      "outputs": [
        {
          "internalType": "address",
          "name": "",
          "type": "address"
        }
      ],
      "stateMutability": "view",
      "type": "function"
    },
    {
      "inputs": [],
      "name": "getAvailableTokensCount",
      "outputs": [
        {
          "internalType": "uint256",
          "name": "",
          "type": "uint256"
        }
      ],
      "stateMutability": "view",
      "type": "function"
    },
    {
      "inputs": [],
      "name": "getAvailableTokensList",
      "outputs": [
        {
          "internalType": "uint16[]",
          "name": "",
          "type": "uint16[]"
        }
      ],
      "stateMutability": "view",
      "type": "function"
    },
    {
      "inputs": [],
      "name": "getMintFee",
      "outputs": [
        {
          "internalType": "uint256",
          "name": "",
          "type": "uint256"
        }
      ],
      "stateMutability": "view",
      "type": "function"
    },
    {
      "inputs": [],
      "name": "giveAwayCounter",
      "outputs": [
        {
          "internalType": "uint16",
          "name": "",
          "type": "uint16"
        }
      ],
      "stateMutability": "view",
      "type": "function"
    },
    {
      "inputs": [
        {
          "internalType": "address",
          "name": "owner",
          "type": "address"
        },
        {
          "internalType": "address",
          "name": "operator",
          "type": "address"
        }
      ],
      "name": "isApprovedForAll",
      "outputs": [
        {
          "internalType": "bool",
          "name": "",
          "type": "bool"
        }
      ],
      "stateMutability": "view",
      "type": "function"
    },
    {
      "inputs": [],
      "name": "maxMints",
      "outputs": [
        {
          "internalType": "uint8",
          "name": "",
          "type": "uint8"
        }
      ],
      "stateMutability": "view",
      "type": "function"
    },
    {
      "inputs": [],
      "name": "name",
      "outputs": [
        {
          "internalType": "string",
          "name": "",
          "type": "string"
        }
      ],
      "stateMutability": "view",
      "type": "function"
    },
    {
      "inputs": [],
      "name": "numLeft",
      "outputs": [
        {
          "internalType": "uint256",
          "name": "",
          "type": "uint256"
        }
      ],
      "stateMutability": "view",
      "type": "function"
    },
    {
      "inputs": [],
      "name": "owner",
      "outputs": [
        {
          "internalType": "address",
          "name": "",
          "type": "address"
        }
      ],
      "stateMutability": "view",
      "type": "function"
    },
    {
      "inputs": [
        {
          "internalType": "uint256",
          "name": "tokenId",
          "type": "uint256"
        }
      ],
      "name": "ownerOf",
      "outputs": [
        {
          "internalType": "address",
          "name": "",
          "type": "address"
        }
      ],
      "stateMutability": "view",
      "type": "function"
    },
    {
      "inputs": [
        {
          "internalType": "uint16",
          "name": "_start",
          "type": "uint16"
        },
        {
          "internalType": "uint16",
          "name": "_end",
          "type": "uint16"
        }
      ],
      "name": "populateAvailableTokens",
      "outputs": [],
      "stateMutability": "nonpayable",
      "type": "function"
    },
    {
      "inputs": [],
      "name": "renounceOwnership",
      "outputs": [],
      "stateMutability": "nonpayable",
      "type": "function"
    },
    {
      "inputs": [
        {
          "internalType": "uint256",
          "name": "_tokenId",
          "type": "uint256"
        },
        {
          "internalType": "uint256",
          "name": "_salePrice",
          "type": "uint256"
        }
      ],
      "name": "royaltyInfo",
      "outputs": [
        {
          "internalType": "address",
          "name": "receiver",
          "type": "address"
        },
        {
          "internalType": "uint256",
          "name": "royaltyAmount",
          "type": "uint256"
        }
      ],
      "stateMutability": "view",
      "type": "function"
    },
    {
      "inputs": [],
      "name": "royaltyPercent",
      "outputs": [
        {
          "internalType": "uint8",
          "name": "",
          "type": "uint8"
        }
      ],
      "stateMutability": "view",
      "type": "function"
    },
    {
      "inputs": [
        {
          "internalType": "address",
          "name": "from",
          "type": "address"
        },
        {
          "internalType": "address",
          "name": "to",
          "type": "address"
        },
        {
          "internalType": "uint256",
          "name": "tokenId",
          "type": "uint256"
        }
      ],
      "name": "safeTransferFrom",
      "outputs": [],
      "stateMutability": "nonpayable",
      "type": "function"
    },
    {
      "inputs": [
        {
          "internalType": "address",
          "name": "from",
          "type": "address"
        },
        {
          "internalType": "address",
          "name": "to",
          "type": "address"
        },
        {
          "internalType": "uint256",
          "name": "tokenId",
          "type": "uint256"
        },
        {
          "internalType": "bytes",
          "name": "_data",
          "type": "bytes"
        }
      ],
      "name": "safeTransferFrom",
      "outputs": [],
      "stateMutability": "nonpayable",
      "type": "function"
    },
    {
      "inputs": [
        {
          "internalType": "address",
          "name": "operator",
          "type": "address"
        },
        {
          "internalType": "bool",
          "name": "approved",
          "type": "bool"
        }
      ],
      "name": "setApprovalForAll",
      "outputs": [],
      "stateMutability": "nonpayable",
      "type": "function"
    },
    {
      "inputs": [
        {
          "internalType": "string",
          "name": "_newBaseURI",
          "type": "string"
        }
      ],
      "name": "setBaseURI",
      "outputs": [],
      "stateMutability": "nonpayable",
      "type": "function"
    },
    {
      "inputs": [
        {
          "internalType": "bytes4",
          "name": "interfaceId",
          "type": "bytes4"
        }
      ],
      "name": "supportsInterface",
      "outputs": [
        {
          "internalType": "bool",
          "name": "",
          "type": "bool"
        }
      ],
      "stateMutability": "view",
      "type": "function"
    },
    {
      "inputs": [],
      "name": "symbol",
      "outputs": [
        {
          "internalType": "string",
          "name": "",
          "type": "string"
        }
      ],
      "stateMutability": "view",
      "type": "function"
    },
    {
      "inputs": [
        {
          "internalType": "uint256",
          "name": "tokenId",
          "type": "uint256"
        }
      ],
      "name": "tokenURI",
      "outputs": [
        {
          "internalType": "string",
          "name": "",
          "type": "string"
        }
      ],
      "stateMutability": "view",
      "type": "function"
    },
    {
      "inputs": [],
      "name": "totalPop",
      "outputs": [
        {
          "internalType": "uint16",
          "name": "",
          "type": "uint16"
        }
      ],
      "stateMutability": "view",
      "type": "function"
    },
    {
      "inputs": [
        {
          "internalType": "address",
          "name": "from",
          "type": "address"
        },
        {
          "internalType": "address",
          "name": "to",
          "type": "address"
        },
        {
          "internalType": "uint256",
          "name": "tokenId",
          "type": "uint256"
        }
      ],
      "name": "transferFrom",
      "outputs": [],
      "stateMutability": "nonpayable",
      "type": "function"
    },
    {
      "inputs": [
        {
          "internalType": "address",
          "name": "newOwner",
          "type": "address"
        }
      ],
      "name": "transferOwnership",
      "outputs": [],
      "stateMutability": "nonpayable",
      "type": "function"
    },
    {
      "inputs": [],
      "name": "withdraw",
      "outputs": [],
      "stateMutability": "payable",
      "type": "function"
    }
  ],
  "bytecode": "0x600c805463ffffffff1916905561271060808181526204e2a06040529060a06204e20080368337505081516200003d92600d92506020019062000231565b50612710600e5560405180606001604052806036815260200162002d736036913980516200007491600f91602090910190620002e1565b503480156200008257600080fd5b50604080518082018252601081526f43727970746f466c6578506978656c7360801b60208083019182528351808501909452600684526510d19413919560d21b908401528151919291620000d991600091620002e1565b508051620000ef906001906020840190620002e1565b5050506200010c620001066200014b60201b60201c565b6200014f565b6200011e63152a902d60e11b620001a1565b6200012f62357ab560e91b620001a1565b620001456200013d620001fc565b60056200020b565b620003e9565b3390565b600a80546001600160a01b038381166001600160a01b0319831681179093556040519116919082907f8be0079c531659141344cd1fd0a4f28419497f9722a3daafe3b4186f6b6457e090600090a35050565b6001600160e01b03198082161415620001d75760405162461bcd60e51b8152600401620001ce9062000375565b60405180910390fd5b6001600160e01b0319166000908152600760205260409020805460ff19166001179055565b600a546001600160a01b031690565b600880546001600160a01b0319166001600160a01b039390931692909217909155600955565b82805482825590600052602060002090600f01601090048101928215620002cf5791602002820160005b838211156200029d57835183826101000a81548161ffff021916908361ffff16021790555092602001926002016020816001010492830192600103026200025b565b8015620002cd5782816101000a81549061ffff02191690556002016020816001010492830192600103026200029d565b505b50620002dd9291506200035e565b5090565b828054620002ef90620003ac565b90600052602060002090601f016020900481019282620003135760008555620002cf565b82601f106200032e57805160ff1916838001178555620002cf565b82800160010185558215620002cf579182015b82811115620002cf57825182559160200191906001019062000341565b5b80821115620002dd57600081556001016200035f565b6020808252601c908201527f4552433136353a20696e76616c696420696e7465726661636520696400000000604082015260600190565b600281046001821680620003c157607f821691505b60208210811415620003e357634e487b7160e01b600052602260045260246000fd5b50919050565b61297a80620003f96000396000f3fe6080604052600436106101995760003560e01c8063715018a6116100dd578063715018a6146103c757806374894b79146103dc5780637a5caab3146103fe5780638da5cb5b1461041357806395d89b41146104285780639bf4337c1461043d5780639f67756d1461045f578063a22cb46514610481578063ad64d068146104a1578063b6b6f0c3146104c1578063b88d4fde146104d6578063c49b9249146104f6578063c87b56dd1461050b578063e985e9c51461052b578063efc81a8c1461054b578063f2fde38b14610553578063f75da1b31461057357610199565b806301ffc9a71461019e578063062f369d146101d457806306fdde03146101f6578063081812fc14610218578063095ea7b31461024557806323b872dd146102675780632a55205a146102875780632dcd52f2146102b557806334660765146102ca57806335fb9e13146102ea5780633ccfd60b1461030a57806342842e0e14610312578063441ca0501461033257806355f804b3146103525780636352211e146103725780636c0360eb1461039257806370a08231146103a7575b600080fd5b3480156101aa57600080fd5b506101be6101b9366004611ed4565b610593565b6040516101cb91906120fd565b60405180910390f35b3480156101e057600080fd5b506101e96105a6565b6040516101cb919061271b565b34801561020257600080fd5b5061020b6105ac565b6040516101cb9190612108565b34801561022457600080fd5b50610238610233366004611f94565b61063e565b6040516101cb919061204b565b34801561025157600080fd5b50610265610260366004611dfe565b61068a565b005b34801561027357600080fd5b50610265610282366004611d11565b610722565b34801561029357600080fd5b506102a76102a2366004611fac565b61075a565b6040516101cb92919061209c565b3480156102c157600080fd5b506101e961078f565b3480156102d657600080fd5b506102656102e5366004611f51565b610795565b3480156102f657600080fd5b50610265610305366004611f6b565b61093a565b610265610a70565b34801561031e57600080fd5b5061026561032d366004611d11565b610af2565b34801561033e57600080fd5b5061026561034d366004611e27565b610b0d565b34801561035e57600080fd5b5061026561036d366004611f0c565b610b9e565b34801561037e57600080fd5b5061023861038d366004611f94565b610bf0565b34801561039e57600080fd5b5061020b610c25565b3480156103b357600080fd5b506101e96103c2366004611cce565b610cb3565b3480156103d357600080fd5b50610265610cf7565b3480156103e857600080fd5b506103f1610d42565b6040516101cb91906120b5565b34801561040a57600080fd5b506101e9610e38565b34801561041f57600080fd5b50610238610eb6565b34801561043457600080fd5b5061020b610ec5565b34801561044957600080fd5b50610452610ed4565b6040516101cb919061270c565b34801561046b57600080fd5b50610474610ee4565b6040516101cb9190612724565b34801561048d57600080fd5b5061026561049c366004611dc4565b610ee9565b3480156104ad57600080fd5b506104526104bc366004611f94565b610fb7565b3480156104cd57600080fd5b50610474610fef565b3480156104e257600080fd5b506102656104f1366004611d4c565b610ff4565b34801561050257600080fd5b50610452611033565b34801561051757600080fd5b5061020b610526366004611f94565b61103d565b34801561053757600080fd5b506101be610546366004611ce8565b61115e565b6101e961118c565b34801561055f57600080fd5b5061026561056e366004611cce565b6113f1565b34801561057f57600080fd5b5061047461058e366004611cce565b61145f565b600061059e82611474565b90505b919050565b600e5481565b6060600080546105bb90612840565b80601f01602080910402602001604051908101604052809291908181526020018280546105e790612840565b80156106345780601f1061060957610100808354040283529160200191610634565b820191906000526020600020905b81548152906001019060200180831161061757829003601f168201915b5050505050905090565b6000610649826114a5565b61066e5760405162461bcd60e51b81526004016106659061249f565b60405180910390fd5b506000908152600460205260409020546001600160a01b031690565b600061069582610bf0565b9050806001600160a01b0316836001600160a01b031614156106c95760405162461bcd60e51b8152600401610665906125b8565b806001600160a01b03166106db6114c2565b6001600160a01b031614806106f757506106f7816105466114c2565b6107135760405162461bcd60e51b81526004016106659061232e565b61071d83836114c6565b505050565b61073361072d6114c2565b82611534565b61074f5760405162461bcd60e51b8152600401610665906125f9565b61071d8383836115b1565b6008546009546001600160a01b039091169060009060649061077c90856127a4565b6107869190612790565b90509250929050565b600e5490565b61079d6114c2565b6001600160a01b03166107ae610eb6565b6001600160a01b0316146107d45760405162461bcd60e51b8152600401610665906124eb565b600c5461012c61ffff909116106107fd5760405162461bcd60e51b81526004016106659061264a565b610812610808610eb6565b8261ffff166116de565b600e805490600061082283612829565b9190505550600d600e548154811061084a57634e487b7160e01b600052603260045260246000fd5b60009182526020909120601082040154600f9091166002026101000a900461ffff16600d6108796001846127c3565b61ffff168154811061089b57634e487b7160e01b600052603260045260246000fd5b60009182526020822060108204018054600f9092166002026101000a61ffff818102199093169483160293909317909255600c805490921691906108de8361287b565b91906101000a81548161ffff021916908361ffff16021790555050600e548161ffff16336001600160a01b03167f8587227cba5e4c595b198905190a948a31044ca1904827973a8763a7ab31ccbf60405160405180910390a450565b6109426114c2565b6001600160a01b0316610953610eb6565b6001600160a01b0316146109795760405162461bcd60e51b8152600401610665906124eb565b600c54829061099390839062010000900461ffff1661275b565b61099d91906127c3565b6109a890600161275b565b600c805463ffff000019166201000061ffff93841681029190911791829055612710910490911611156109ed5760405162461bcd60e51b8152600401610665906126d5565b815b8161ffff168161ffff161161071d5780600d610a0c6001836127c3565b61ffff1681548110610a2e57634e487b7160e01b600052603260045260246000fd5b90600052602060002090601091828204019190066002026101000a81548161ffff021916908361ffff1602179055508080610a689061287b565b9150506109ef565b610a786114c2565b6001600160a01b0316610a89610eb6565b6001600160a01b031614610aaf5760405162461bcd60e51b8152600401610665906124eb565b610ab7610eb6565b6001600160a01b03166108fc479081150290604051600060405180830381858888f19350505050158015610aef573d6000803e3d6000fd5b50565b61071d83838360405180602001604052806000815250610ff4565b610b156114c2565b6001600160a01b0316610b26610eb6565b6001600160a01b031614610b4c5760405162461bcd60e51b8152600401610665906124eb565b60005b8151811015610b9a57610b88828281518110610b7b57634e487b7160e01b600052603260045260246000fd5b6020026020010151610795565b80610b928161289d565b915050610b4f565b5050565b610ba66114c2565b6001600160a01b0316610bb7610eb6565b6001600160a01b031614610bdd5760405162461bcd60e51b8152600401610665906124eb565b8051610b9a90600f906020840190611bb5565b6000818152600260205260408120546001600160a01b03168061059e5760405162461bcd60e51b8152600401610665906123d0565b600f8054610c3290612840565b80601f0160208091040260200160405190810160405280929190818152602001828054610c5e90612840565b8015610cab5780601f10610c8057610100808354040283529160200191610cab565b820191906000526020600020905b815481529060010190602001808311610c8e57829003601f168201915b505050505081565b60006001600160a01b038216610cdb5760405162461bcd60e51b815260040161066590612386565b506001600160a01b031660009081526003602052604090205490565b610cff6114c2565b6001600160a01b0316610d10610eb6565b6001600160a01b031614610d365760405162461bcd60e51b8152600401610665906124eb565b610d4060006116f8565b565b600e546060906000816001600160401b03811115610d7057634e487b7160e01b600052604160045260246000fd5b604051908082528060200260200182016040528015610d99578160200160208202803683370190505b50905060005b82811015610e3157600d8181548110610dc857634e487b7160e01b600052603260045260246000fd5b90600052602060002090601091828204019190066002029054906101000a900461ffff16828281518110610e0c57634e487b7160e01b600052603260045260246000fd5b61ffff9092166020928302919091019091015280610e298161289d565b915050610d9f565b5091505090565b600e546000906125e4811115610e605760405162461bcd60e51b8152600401610665906122f7565b6722b1c8c1227a0000681b1ae4d6e2ef5000006000826125e3610e8382856127e6565b610e8f876125e46127e6565b610e9991906127a4565b610ea39190612790565b610ead9190612778565b94505050505090565b600a546001600160a01b031690565b6060600180546105bb90612840565b600c5462010000900461ffff1681565b600581565b610ef16114c2565b6001600160a01b0316826001600160a01b03161415610f225760405162461bcd60e51b815260040161066590612278565b8060056000610f2f6114c2565b6001600160a01b03908116825260208083019390935260409182016000908120918716808252919093529120805460ff191692151592909217909155610f736114c2565b6001600160a01b03167f17307eab39ab6107e8899845ad3d59bd9653f200f220920489ca2b5937696c3183604051610fab91906120fd565b60405180910390a35050565b600d8181548110610fc757600080fd5b9060005260206000209060109182820401919006600202915054906101000a900461ffff1681565b601481565b611005610fff6114c2565b83611534565b6110215760405162461bcd60e51b8152600401610665906125f9565b61102d8484848461174a565b50505050565b600c5461ffff1681565b6060611048826114a5565b6110645760405162461bcd60e51b81526004016106659061244e565b6000828152600660205260408120805461107d90612840565b80601f01602080910402602001604051908101604052809291908181526020018280546110a990612840565b80156110f65780601f106110cb576101008083540402835291602001916110f6565b820191906000526020600020905b8154815290600101906020018083116110d957829003601f168201915b50505050509050600061110761177d565b905080516000141561111b575090506105a1565b81511561114d578082604051602001611135929190611ff9565b604051602081830303815290604052925050506105a1565b6111568461178c565b949350505050565b6001600160a01b03918216600090815260056020908152604080832093909416825291909152205460ff1690565b336000908152600b6020526040812054601460ff909116106111c05760405162461bcd60e51b81526004016106659061211b565b6000600e54116111e25760405162461bcd60e51b8152600401610665906126ac565b6125e4600e5411156112065760405162461bcd60e51b8152600401610665906122f7565b61120e610e38565b34101561122d5760405162461bcd60e51b81526004016106659061267f565b6000600e544233600e5460405160200161124993929190612028565b6040516020818303038152906040528051906020012060001c61126c91906128d8565b90506000600d828154811061129157634e487b7160e01b600052603260045260246000fd5b60009182526020909120601082040154600f9091166002026101000a900461ffff1690506112bf33826116de565b600d6001600e546112d091906127e6565b815481106112ee57634e487b7160e01b600052603260045260246000fd5b90600052602060002090601091828204019190066002029054906101000a900461ffff16600d838154811061133357634e487b7160e01b600052603260045260246000fd5b90600052602060002090601091828204019190066002026101000a81548161ffff021916908361ffff160217905550600e600081548092919061137590612829565b9091555050336000908152600b60205260408120805460ff1691611398836128b8565b91906101000a81548160ff021916908360ff16021790555050600e5481336001600160a01b03167fe9d74c069bdd089c51c59f87e56dd8a7c35a793fdd64890c9178b516fc43379260405160405180910390a491505090565b6113f96114c2565b6001600160a01b031661140a610eb6565b6001600160a01b0316146114305760405162461bcd60e51b8152600401610665906124eb565b6001600160a01b0381166114565760405162461bcd60e51b8152600401610665906121b8565b610aef816116f8565b600b6020526000908152604090205460ff1681565b600061147f8261180f565b8061059e5750506001600160e01b03191660009081526007602052604090205460ff1690565b6000908152600260205260409020546001600160a01b0316151590565b3390565b600081815260046020526040902080546001600160a01b0319166001600160a01b03841690811790915581906114fb82610bf0565b6001600160a01b03167f8c5be1e5ebec7d5bd14f71427d1e84f3dd0314c0f7b2291e5b200ac8c7c3b92560405160405180910390a45050565b600061153f826114a5565b61155b5760405162461bcd60e51b8152600401610665906122ab565b600061156683610bf0565b9050806001600160a01b0316846001600160a01b031614806115a15750836001600160a01b03166115968461063e565b6001600160a01b0316145b806111565750611156818561115e565b826001600160a01b03166115c482610bf0565b6001600160a01b0316146115ea5760405162461bcd60e51b815260040161066590612520565b6001600160a01b0382166116105760405162461bcd60e51b815260040161066590612234565b61161b83838361071d565b6116266000826114c6565b6001600160a01b038316600090815260036020526040812080546001929061164f9084906127e6565b90915550506001600160a01b038216600090815260036020526040812080546001929061167d908490612778565b909155505060008181526002602052604080822080546001600160a01b0319166001600160a01b0386811691821790925591518493918716917fddf252ad1be2c89b69c2b068fc378daa952ba7f163c4a11628f55a4df523b3ef91a4505050565b610b9a82826040518060200160405280600081525061184f565b600a80546001600160a01b038381166001600160a01b0319831681179093556040519116919082907f8be0079c531659141344cd1fd0a4f28419497f9722a3daafe3b4186f6b6457e090600090a35050565b6117558484846115b1565b61176184848484611882565b61102d5760405162461bcd60e51b815260040161066590612166565b6060600f80546105bb90612840565b6060611797826114a5565b6117b35760405162461bcd60e51b815260040161066590612569565b60006117bd61177d565b905060008151116117dd5760405180602001604052806000815250611808565b806117e78461199d565b6040516020016117f8929190611ff9565b6040516020818303038152906040525b9392505050565b60006001600160e01b031982166380ac58cd60e01b148061184057506001600160e01b03198216635b5e139f60e01b145b8061059e575061059e82611ab7565b6118598383611ad0565b6118666000848484611882565b61071d5760405162461bcd60e51b815260040161066590612166565b6000611896846001600160a01b0316611baf565b1561199257836001600160a01b031663150b7a026118b26114c2565b8786866040518563ffffffff1660e01b81526004016118d4949392919061205f565b602060405180830381600087803b1580156118ee57600080fd5b505af192505050801561191e575060408051601f3d908101601f1916820190925261191b91810190611ef0565b60015b611978573d80801561194c576040519150601f19603f3d011682016040523d82523d6000602084013e611951565b606091505b5080516119705760405162461bcd60e51b815260040161066590612166565b805181602001fd5b6001600160e01b031916630a85bd0160e11b149050611156565b506001949350505050565b6060816119c257506040805180820190915260018152600360fc1b60208201526105a1565b8160005b81156119ec57806119d68161289d565b91506119e59050600a83612790565b91506119c6565b6000816001600160401b03811115611a1457634e487b7160e01b600052604160045260246000fd5b6040519080825280601f01601f191660200182016040528015611a3e576020820181803683370190505b5090505b841561115657611a536001836127e6565b9150611a60600a866128d8565b611a6b906030612778565b60f81b818381518110611a8e57634e487b7160e01b600052603260045260246000fd5b60200101906001600160f81b031916908160001a905350611ab0600a86612790565b9450611a42565b6001600160e01b031981166301ffc9a760e01b14919050565b6001600160a01b038216611af65760405162461bcd60e51b815260040161066590612419565b611aff816114a5565b15611b1c5760405162461bcd60e51b8152600401610665906121fe565b611b286000838361071d565b6001600160a01b0382166000908152600360205260408120805460019290611b51908490612778565b909155505060008181526002602052604080822080546001600160a01b0319166001600160a01b03861690811790915590518392907fddf252ad1be2c89b69c2b068fc378daa952ba7f163c4a11628f55a4df523b3ef908290a45050565b3b151590565b828054611bc190612840565b90600052602060002090601f016020900481019282611be35760008555611c29565b82601f10611bfc57805160ff1916838001178555611c29565b82800160010185558215611c29579182015b82811115611c29578251825591602001919060010190611c0e565b50611c35929150611c39565b5090565b5b80821115611c355760008155600101611c3a565b60006001600160401b03831115611c6757611c67612918565b611c7a601f8401601f1916602001612732565b9050828152838383011115611c8e57600080fd5b828260208301376000602084830101529392505050565b80356001600160a01b03811681146105a157600080fd5b803561ffff811681146105a157600080fd5b600060208284031215611cdf578081fd5b61180882611ca5565b60008060408385031215611cfa578081fd5b611d0383611ca5565b915061078660208401611ca5565b600080600060608486031215611d25578081fd5b611d2e84611ca5565b9250611d3c60208501611ca5565b9150604084013590509250925092565b60008060008060808587031215611d61578081fd5b611d6a85611ca5565b9350611d7860208601611ca5565b92506040850135915060608501356001600160401b03811115611d99578182fd5b8501601f81018713611da9578182fd5b611db887823560208401611c4e565b91505092959194509250565b60008060408385031215611dd6578182fd5b611ddf83611ca5565b915060208301358015158114611df3578182fd5b809150509250929050565b60008060408385031215611e10578182fd5b611e1983611ca5565b946020939093013593505050565b60006020808385031215611e39578182fd5b82356001600160401b0380821115611e4f578384fd5b818501915085601f830112611e62578384fd5b813581811115611e7457611e74612918565b8381029150611e84848301612732565b8181528481019084860184860187018a1015611e9e578788fd5b8795505b83861015611ec757611eb381611cbc565b835260019590950194918601918601611ea2565b5098975050505050505050565b600060208284031215611ee5578081fd5b81356118088161292e565b600060208284031215611f01578081fd5b81516118088161292e565b600060208284031215611f1d578081fd5b81356001600160401b03811115611f32578182fd5b8201601f81018413611f42578182fd5b61115684823560208401611c4e565b600060208284031215611f62578081fd5b61180882611cbc565b60008060408385031215611f7d578182fd5b611f8683611cbc565b915061078660208401611cbc565b600060208284031215611fa5578081fd5b5035919050565b60008060408385031215611fbe578182fd5b50508035926020909101359150565b60008151808452611fe58160208601602086016127fd565b601f01601f19169290920160200192915050565b6000835161200b8184602088016127fd565b83519083019061201f8183602088016127fd565b01949350505050565b92835260609190911b6001600160601b0319166020830152603482015260540190565b6001600160a01b0391909116815260200190565b6001600160a01b038581168252841660208201526040810183905260806060820181905260009061209290830184611fcd565b9695505050505050565b6001600160a01b03929092168252602082015260400190565b6020808252825182820181905260009190848201906040850190845b818110156120f157835161ffff16835292840192918401916001016120d1565b50909695505050505050565b901515815260200190565b6000602082526118086020830184611fcd565b6020808252602b908201527f416c7265616479206d696e746564206d617820616d6f756e7420666f7220746860408201526a697320616464726573732160a81b606082015260800190565b60208082526032908201527f4552433732313a207472616e7366657220746f206e6f6e20455243373231526560408201527131b2b4bb32b91034b6b83632b6b2b73a32b960711b606082015260800190565b60208082526026908201527f4f776e61626c653a206e6577206f776e657220697320746865207a65726f206160408201526564647265737360d01b606082015260800190565b6020808252601c908201527b115490cdcc8c4e881d1bdad95b88185b1c9958591e481b5a5b9d195960221b604082015260600190565b60208082526024908201527f4552433732313a207472616e7366657220746f20746865207a65726f206164646040820152637265737360e01b606082015260800190565b60208082526019908201527822a9219b99189d1030b8383937bb32903a379031b0b63632b960391b604082015260600190565b6020808252602c908201527f4552433732313a206f70657261746f7220717565727920666f72206e6f6e657860408201526b34b9ba32b73a103a37b5b2b760a11b606082015260800190565b6020808252601f908201527f476976656177617920746f6b656e73206e6f74206d696e746564207965742100604082015260600190565b60208082526038908201527f4552433732313a20617070726f76652063616c6c6572206973206e6f74206f776040820152771b995c881b9bdc88185c1c1c9bdd995908199bdc88185b1b60421b606082015260800190565b6020808252602a908201527f4552433732313a2062616c616e636520717565727920666f7220746865207a65604082015269726f206164647265737360b01b606082015260800190565b60208082526029908201527f4552433732313a206f776e657220717565727920666f72206e6f6e657869737460408201526832b73a103a37b5b2b760b91b606082015260800190565b6020808252818101527f4552433732313a206d696e7420746f20746865207a65726f2061646472657373604082015260600190565b60208082526031908201527f45524337323155524953746f726167653a2055524920717565727920666f72206040820152703737b732bc34b9ba32b73a103a37b5b2b760791b606082015260800190565b6020808252602c908201527f4552433732313a20617070726f76656420717565727920666f72206e6f6e657860408201526b34b9ba32b73a103a37b5b2b760a11b606082015260800190565b6020808252818101527f4f776e61626c653a2063616c6c6572206973206e6f7420746865206f776e6572604082015260600190565b60208082526029908201527f4552433732313a207472616e73666572206f6620746f6b656e2074686174206960408201526839903737ba1037bbb760b91b606082015260800190565b6020808252602f908201527f4552433732314d657461646174613a2055524920717565727920666f72206e6f60408201526e3732bc34b9ba32b73a103a37b5b2b760891b606082015260800190565b60208082526021908201527f4552433732313a20617070726f76616c20746f2063757272656e74206f776e656040820152603960f91b606082015260800190565b60208082526031908201527f4552433732313a207472616e736665722063616c6c6572206973206e6f74206f6040820152701ddb995c881b9bdc88185c1c1c9bdd9959607a1b606082015260800190565b6020808252818101527f416c6c206769766561776179204e46547320616c7265616479206d696e746564604082015260600190565b602080825260139082015272496e73756666696369656e742066756e64732160681b604082015260600190565b6020808252600f908201526e4e6f20746f6b656e73206c6566742160881b604082015260600190565b6020808252601d908201527f4d617820746f6b656e7320616c726561647920706f70756c6174656421000000604082015260600190565b61ffff91909116815260200190565b90815260200190565b60ff91909116815260200190565b6040518181016001600160401b038111828210171561275357612753612918565b604052919050565b600061ffff80831681851680830382111561201f5761201f6128ec565b6000821982111561278b5761278b6128ec565b500190565b60008261279f5761279f612902565b500490565b60008160001904831182151516156127be576127be6128ec565b500290565b600061ffff838116908316818110156127de576127de6128ec565b039392505050565b6000828210156127f8576127f86128ec565b500390565b60005b83811015612818578181015183820152602001612800565b8381111561102d5750506000910152565b600081612838576128386128ec565b506000190190565b60028104600182168061285457607f821691505b6020821081141561287557634e487b7160e01b600052602260045260246000fd5b50919050565b600061ffff80831681811415612893576128936128ec565b6001019392505050565b60006000198214156128b1576128b16128ec565b5060010190565b600060ff821660ff8114156128cf576128cf6128ec565b60010192915050565b6000826128e7576128e7612902565b500690565b634e487b7160e01b600052601160045260246000fd5b634e487b7160e01b600052601260045260246000fd5b634e487b7160e01b600052604160045260246000fd5b6001600160e01b031981168114610aef57600080fdfea2646970667358221220ade22b1a7cf48e39a059ce30ab7f7673003b4e6e3e8f6c3cd2d71974fb8babea64736f6c63430008000033697066733a2f2f516d5743567a6e78326f66446b416647714d78485a4b33633575616162427854724d4c62616d66644e4a3135655a2f",
  "linkReferences": {},
  "deployedLinkReferences": {}
}