{
  "_format": "hh-sol-artifact-1",
  "contractName": "CryptoFlexPixelsNFT",
  "sourceName": "contracts/CryptoFlexPixelsNFT.sol",
  "abi": [
    {
      "inputs": [],
      "stateMutability": "nonpayable",
      "type": "constructor"
    },
    {
      "anonymous": false,
      "inputs": [
        {
          "indexed": true,
          "internalType": "address",
          "name": "owner",
          "type": "address"
        },
        {
          "indexed": true,
          "internalType": "address",
          "name": "approved",
          "type": "address"
        },
        {
          "indexed": true,
          "internalType": "uint256",
          "name": "tokenId",
          "type": "uint256"
        }
      ],
      "name": "Approval",
      "type": "event"
    },
    {
      "anonymous": false,
      "inputs": [
        {
          "indexed": true,
          "internalType": "address",
          "name": "owner",
          "type": "address"
        },
        {
          "indexed": true,
          "internalType": "address",
          "name": "operator",
          "type": "address"
        },
        {
          "indexed": false,
          "internalType": "bool",
          "name": "approved",
          "type": "bool"
        }
      ],
      "name": "ApprovalForAll",
      "type": "event"
    },
    {
      "anonymous": false,
      "inputs": [
        {
          "indexed": true,
          "internalType": "address",
          "name": "previousOwner",
          "type": "address"
        },
        {
          "indexed": true,
          "internalType": "address",
          "name": "newOwner",
          "type": "address"
        }
      ],
      "name": "OwnershipTransferred",
      "type": "event"
    },
    {
      "anonymous": false,
      "inputs": [
        {
          "indexed": true,
          "internalType": "address",
          "name": "from",
          "type": "address"
        },
        {
          "indexed": true,
          "internalType": "address",
          "name": "to",
          "type": "address"
        },
        {
          "indexed": true,
          "internalType": "uint256",
          "name": "tokenId",
          "type": "uint256"
        }
      ],
      "name": "Transfer",
      "type": "event"
    },
    {
      "anonymous": false,
      "inputs": [
        {
          "indexed": true,
          "internalType": "address",
          "name": "createdBy",
          "type": "address"
        },
        {
          "indexed": true,
          "internalType": "uint256",
          "name": "tokenId",
          "type": "uint256"
        },
        {
          "indexed": true,
          "internalType": "uint256",
          "name": "tokensLeft",
          "type": "uint256"
        }
      ],
      "name": "createdGiveAwayNFT",
      "type": "event"
    },
    {
      "anonymous": false,
      "inputs": [
        {
          "indexed": true,
          "internalType": "address",
          "name": "createdBy",
          "type": "address"
        },
        {
          "indexed": true,
          "internalType": "uint256",
          "name": "tokenId",
          "type": "uint256"
        },
        {
          "indexed": true,
          "internalType": "uint256",
          "name": "tokensLeft",
          "type": "uint256"
        }
      ],
      "name": "createdRandomNFT",
      "type": "event"
    },
    {
      "inputs": [
        {
          "internalType": "address",
          "name": "",
          "type": "address"
        }
      ],
      "name": "addressToMintCount",
      "outputs": [
        {
          "internalType": "uint256",
          "name": "",
          "type": "uint256"
        }
      ],
      "stateMutability": "view",
      "type": "function"
    },
    {
      "inputs": [
        {
          "internalType": "address",
          "name": "to",
          "type": "address"
        },
        {
          "internalType": "uint256",
          "name": "tokenId",
          "type": "uint256"
        }
      ],
      "name": "approve",
      "outputs": [],
      "stateMutability": "nonpayable",
      "type": "function"
    },
    {
      "inputs": [
        {
          "internalType": "uint256",
          "name": "",
          "type": "uint256"
        }
      ],
      "name": "availableTokens",
      "outputs": [
        {
          "internalType": "uint256",
          "name": "",
          "type": "uint256"
        }
      ],
      "stateMutability": "view",
      "type": "function"
    },
    {
      "inputs": [
        {
          "internalType": "address",
          "name": "owner",
          "type": "address"
        }
      ],
      "name": "balanceOf",
      "outputs": [
        {
          "internalType": "uint256",
          "name": "",
          "type": "uint256"
        }
      ],
      "stateMutability": "view",
      "type": "function"
    },
    {
      "inputs": [
        {
          "internalType": "uint256",
          "name": "_start",
          "type": "uint256"
        },
        {
          "internalType": "uint256",
          "name": "_end",
          "type": "uint256"
        }
      ],
      "name": "batchCreateGiveAway",
      "outputs": [],
      "stateMutability": "nonpayable",
      "type": "function"
    },
    {
      "inputs": [],
      "name": "create",
      "outputs": [
        {
          "internalType": "uint256",
          "name": "",
          "type": "uint256"
        }
      ],
      "stateMutability": "payable",
      "type": "function"
    },
    {
      "inputs": [
        {
          "internalType": "uint256",
          "name": "tokenId",
          "type": "uint256"
        }
      ],
      "name": "createGiveAway",
      "outputs": [],
      "stateMutability": "nonpayable",
      "type": "function"
    },
    {
      "inputs": [
        {
          "internalType": "uint256",
          "name": "tokenId",
          "type": "uint256"
        }
      ],
      "name": "getApproved",
      "outputs": [
        {
          "internalType": "address",
          "name": "",
          "type": "address"
        }
      ],
      "stateMutability": "view",
      "type": "function"
    },
    {
      "inputs": [],
      "name": "getAvailableTokensCount",
      "outputs": [
        {
          "internalType": "uint256",
          "name": "",
          "type": "uint256"
        }
      ],
      "stateMutability": "view",
      "type": "function"
    },
    {
      "inputs": [],
      "name": "getAvailableTokensList",
      "outputs": [
        {
          "internalType": "uint256[]",
          "name": "",
          "type": "uint256[]"
        }
      ],
      "stateMutability": "view",
      "type": "function"
    },
    {
      "inputs": [],
      "name": "getMintFee",
      "outputs": [
        {
          "internalType": "uint256",
          "name": "",
          "type": "uint256"
        }
      ],
      "stateMutability": "view",
      "type": "function"
    },
    {
      "inputs": [
        {
          "internalType": "address",
          "name": "owner",
          "type": "address"
        },
        {
          "internalType": "address",
          "name": "operator",
          "type": "address"
        }
      ],
      "name": "isApprovedForAll",
      "outputs": [
        {
          "internalType": "bool",
          "name": "",
          "type": "bool"
        }
      ],
      "stateMutability": "view",
      "type": "function"
    },
    {
      "inputs": [],
      "name": "name",
      "outputs": [
        {
          "internalType": "string",
          "name": "",
          "type": "string"
        }
      ],
      "stateMutability": "view",
      "type": "function"
    },
    {
      "inputs": [],
      "name": "owner",
      "outputs": [
        {
          "internalType": "address",
          "name": "",
          "type": "address"
        }
      ],
      "stateMutability": "view",
      "type": "function"
    },
    {
      "inputs": [
        {
          "internalType": "uint256",
          "name": "tokenId",
          "type": "uint256"
        }
      ],
      "name": "ownerOf",
      "outputs": [
        {
          "internalType": "address",
          "name": "",
          "type": "address"
        }
      ],
      "stateMutability": "view",
      "type": "function"
    },
    {
      "inputs": [
        {
          "internalType": "uint256",
          "name": "_start",
          "type": "uint256"
        },
        {
          "internalType": "uint256",
          "name": "_end",
          "type": "uint256"
        }
      ],
      "name": "populateAvailableTokens",
      "outputs": [],
      "stateMutability": "nonpayable",
      "type": "function"
    },
    {
      "inputs": [],
      "name": "renounceOwnership",
      "outputs": [],
      "stateMutability": "nonpayable",
      "type": "function"
    },
    {
      "inputs": [
        {
          "internalType": "uint256",
          "name": "_tokenId",
          "type": "uint256"
        },
        {
          "internalType": "uint256",
          "name": "_salePrice",
          "type": "uint256"
        }
      ],
      "name": "royaltyInfo",
      "outputs": [
        {
          "internalType": "address",
          "name": "receiver",
          "type": "address"
        },
        {
          "internalType": "uint256",
          "name": "royaltyAmount",
          "type": "uint256"
        }
      ],
      "stateMutability": "view",
      "type": "function"
    },
    {
      "inputs": [
        {
          "internalType": "address",
          "name": "from",
          "type": "address"
        },
        {
          "internalType": "address",
          "name": "to",
          "type": "address"
        },
        {
          "internalType": "uint256",
          "name": "tokenId",
          "type": "uint256"
        }
      ],
      "name": "safeTransferFrom",
      "outputs": [],
      "stateMutability": "nonpayable",
      "type": "function"
    },
    {
      "inputs": [
        {
          "internalType": "address",
          "name": "from",
          "type": "address"
        },
        {
          "internalType": "address",
          "name": "to",
          "type": "address"
        },
        {
          "internalType": "uint256",
          "name": "tokenId",
          "type": "uint256"
        },
        {
          "internalType": "bytes",
          "name": "_data",
          "type": "bytes"
        }
      ],
      "name": "safeTransferFrom",
      "outputs": [],
      "stateMutability": "nonpayable",
      "type": "function"
    },
    {
      "inputs": [
        {
          "internalType": "address",
          "name": "operator",
          "type": "address"
        },
        {
          "internalType": "bool",
          "name": "approved",
          "type": "bool"
        }
      ],
      "name": "setApprovalForAll",
      "outputs": [],
      "stateMutability": "nonpayable",
      "type": "function"
    },
    {
      "inputs": [
        {
          "internalType": "string",
          "name": "_newBaseURI",
          "type": "string"
        }
      ],
      "name": "setBaseURI",
      "outputs": [],
      "stateMutability": "nonpayable",
      "type": "function"
    },
    {
      "inputs": [
        {
          "internalType": "bytes4",
          "name": "interfaceId",
          "type": "bytes4"
        }
      ],
      "name": "supportsInterface",
      "outputs": [
        {
          "internalType": "bool",
          "name": "",
          "type": "bool"
        }
      ],
      "stateMutability": "view",
      "type": "function"
    },
    {
      "inputs": [],
      "name": "symbol",
      "outputs": [
        {
          "internalType": "string",
          "name": "",
          "type": "string"
        }
      ],
      "stateMutability": "view",
      "type": "function"
    },
    {
      "inputs": [
        {
          "internalType": "uint256",
          "name": "tokenId",
          "type": "uint256"
        }
      ],
      "name": "tokenURI",
      "outputs": [
        {
          "internalType": "string",
          "name": "",
          "type": "string"
        }
      ],
      "stateMutability": "view",
      "type": "function"
    },
    {
      "inputs": [
        {
          "internalType": "address",
          "name": "from",
          "type": "address"
        },
        {
          "internalType": "address",
          "name": "to",
          "type": "address"
        },
        {
          "internalType": "uint256",
          "name": "tokenId",
          "type": "uint256"
        }
      ],
      "name": "transferFrom",
      "outputs": [],
      "stateMutability": "nonpayable",
      "type": "function"
    },
    {
      "inputs": [
        {
          "internalType": "address",
          "name": "newOwner",
          "type": "address"
        }
      ],
      "name": "transferOwnership",
      "outputs": [],
      "stateMutability": "nonpayable",
      "type": "function"
    },
    {
      "inputs": [],
      "name": "withdraw",
      "outputs": [],
      "stateMutability": "payable",
      "type": "function"
    }
  ],
  "bytecode": "0x600d805461ffff191690556000600e5560c0604052601460808190527f697066733a2f2f6f75776f656972756f6961752f00000000000000000000000060a09081526200005091600f91906200020d565b503480156200005e57600080fd5b50604080518082018252601081526f43727970746f466c6578506978656c7360801b60208083019182528351808501909452600684526510d19413919560d21b908401528151919291620000b5916000916200020d565b508051620000cb9060019060208401906200020d565b505050620000e8620000e26200012760201b60201c565b6200012b565b620000fa63152a902d60e11b6200017d565b6200010b62357ab560e91b6200017d565b6200012162000119620001d8565b6005620001e7565b62000327565b3390565b600a80546001600160a01b038381166001600160a01b0319831681179093556040519116919082907f8be0079c531659141344cd1fd0a4f28419497f9722a3daafe3b4186f6b6457e090600090a35050565b6001600160e01b03198082161415620001b35760405162461bcd60e51b8152600401620001aa90620002b3565b60405180910390fd5b6001600160e01b0319166000908152600760205260409020805460ff19166001179055565b600a546001600160a01b031690565b600880546001600160a01b0319166001600160a01b039390931692909217909155600955565b8280546200021b90620002ea565b90600052602060002090601f0160209004810192826200023f57600085556200028a565b82601f106200025a57805160ff19168380011785556200028a565b828001600101855582156200028a579182015b828111156200028a5782518255916020019190600101906200026d565b50620002989291506200029c565b5090565b5b808211156200029857600081556001016200029d565b6020808252601c908201527f4552433136353a20696e76616c696420696e7465726661636520696400000000604082015260600190565b600281046001821680620002ff57607f821691505b602082108114156200032157634e487b7160e01b600052602260045260246000fd5b50919050565b61244380620003376000396000f3fe6080604052600436106101475760003560e01c806301ffc9a71461014c57806306fdde0314610182578063081812fc146101a4578063095ea7b3146101d157806323b872dd146101f35780632a55205a146102135780632dcd52f2146102415780633ccfd60b1461026357806342842e0e1461026b57806355f804b31461028b5780636352211e146102ab57806370a08231146102cb578063715018a6146102eb57806374894b79146103005780637a5caab3146103225780638a94a61a146103375780638da5cb5b1461035757806395d89b411461036c578063a22cb46514610381578063ad64d068146103a1578063b88d4fde146103c1578063c87b56dd146103e1578063d66fba4714610401578063e985e9c514610421578063efc81a8c14610441578063f2fde38b14610449578063f75da1b314610469578063fa21bd3e14610489575b600080fd5b34801561015857600080fd5b5061016c610167366004611a8d565b6104a9565b6040516101799190611c6f565b60405180910390f35b34801561018e57600080fd5b506101976104bc565b6040516101799190611c7a565b3480156101b057600080fd5b506101c46101bf366004611b0a565b61054e565b6040516101799190611bc1565b3480156101dd57600080fd5b506101f16101ec366004611a64565b61059a565b005b3480156101ff57600080fd5b506101f161020e366004611977565b610632565b34801561021f57600080fd5b5061023361022e366004611b22565b61066a565b604051610179929190611c12565b34801561024d57600080fd5b5061025661069f565b6040516101799190612272565b6101f16106a5565b34801561027757600080fd5b506101f1610286366004611977565b610727565b34801561029757600080fd5b506101f16102a6366004611ac5565b610742565b3480156102b757600080fd5b506101c46102c6366004611b0a565b610798565b3480156102d757600080fd5b506102566102e6366004611934565b6107cd565b3480156102f757600080fd5b506101f1610811565b34801561030c57600080fd5b5061031561085c565b6040516101799190611c2b565b34801561032e57600080fd5b506102566108b3565b34801561034357600080fd5b506101f1610352366004611b22565b61090e565b34801561036357600080fd5b506101c4610971565b34801561037857600080fd5b50610197610980565b34801561038d57600080fd5b506101f161039c366004611a2a565b61098f565b3480156103ad57600080fd5b506102566103bc366004611b0a565b610a5d565b3480156103cd57600080fd5b506101f16103dc3660046119b2565b610a7e565b3480156103ed57600080fd5b506101976103fc366004611b0a565b610abd565b34801561040d57600080fd5b506101f161041c366004611b0a565b610bde565b34801561042d57600080fd5b5061016c61043c36600461194e565b610d65565b610256610d93565b34801561045557600080fd5b506101f1610464366004611934565b610f9f565b34801561047557600080fd5b50610256610484366004611934565b61100d565b34801561049557600080fd5b506101f16104a4366004611b22565b61101f565b60006104b4826110f8565b90505b919050565b6060600080546104cb90612309565b80601f01602080910402602001604051908101604052809291908181526020018280546104f790612309565b80156105445780601f1061051957610100808354040283529160200191610544565b820191906000526020600020905b81548152906001019060200180831161052757829003601f168201915b5050505050905090565b600061055982611129565b61057e5760405162461bcd60e51b815260040161057590612068565b60405180910390fd5b506000908152600460205260409020546001600160a01b031690565b60006105a582610798565b9050806001600160a01b0316836001600160a01b031614156105d95760405162461bcd60e51b815260040161057590612181565b806001600160a01b03166105eb611146565b6001600160a01b0316148061060757506106078161043c611146565b6106235760405162461bcd60e51b815260040161057590611ef7565b61062d838361114a565b505050565b61064361063d611146565b826111b8565b61065f5760405162461bcd60e51b8152600401610575906121c2565b61062d838383611235565b6008546009546001600160a01b039091169060009060649061068c90856122a7565b6106969190612293565b90509250929050565b600c5490565b6106ad611146565b6001600160a01b03166106be610971565b6001600160a01b0316146106e45760405162461bcd60e51b8152600401610575906120b4565b6106ec610971565b6001600160a01b03166108fc479081150290604051600060405180830381858888f19350505050158015610724573d6000803e3d6000fd5b50565b61062d83838360405180602001604052806000815250610a7e565b61074a611146565b6001600160a01b031661075b610971565b6001600160a01b0316146107815760405162461bcd60e51b8152600401610575906120b4565b805161079490600f906020840190611815565b5050565b6000818152600260205260408120546001600160a01b0316806104b45760405162461bcd60e51b815260040161057590611f99565b60006001600160a01b0382166107f55760405162461bcd60e51b815260040161057590611f4f565b506001600160a01b031660009081526003602052604090205490565b610819611146565b6001600160a01b031661082a610971565b6001600160a01b0316146108505760405162461bcd60e51b8152600401610575906120b4565b61085a6000611350565b565b6060600c80548060200260200160405190810160405280929190818152602001828054801561054457602002820191906000526020600020905b815481526020019060010190808311610896575050505050905090565b600c5460009066038d7ea4c68000906702c68af0bb1400009083836124b66108db82866122c6565b6108e7856124b76122c6565b6108f191906122a7565b6108fb9190612293565b610905919061227b565b94505050505090565b610916611146565b6001600160a01b0316610927610971565b6001600160a01b03161461094d5760405162461bcd60e51b8152600401610575906120b4565b815b81811161062d5761095f81610bde565b8061096981612366565b91505061094f565b600a546001600160a01b031690565b6060600180546104cb90612309565b610997611146565b6001600160a01b0316826001600160a01b031614156109c85760405162461bcd60e51b815260040161057590611e41565b80600560006109d5611146565b6001600160a01b03908116825260208083019390935260409182016000908120918716808252919093529120805460ff191692151592909217909155610a19611146565b6001600160a01b03167f17307eab39ab6107e8899845ad3d59bd9653f200f220920489ca2b5937696c3183604051610a519190611c6f565b60405180910390a35050565b600c8181548110610a6d57600080fd5b600091825260209091200154905081565b610a8f610a89611146565b836111b8565b610aab5760405162461bcd60e51b8152600401610575906121c2565b610ab7848484846113a2565b50505050565b6060610ac882611129565b610ae45760405162461bcd60e51b815260040161057590612017565b60008281526006602052604081208054610afd90612309565b80601f0160208091040260200160405190810160405280929190818152602001828054610b2990612309565b8015610b765780601f10610b4b57610100808354040283529160200191610b76565b820191906000526020600020905b815481529060010190602001808311610b5957829003601f168201915b505050505090506000610b876113d5565b9050805160001415610b9b575090506104b7565b815115610bcd578082604051602001610bb5929190611b6f565b604051602081830303815290604052925050506104b7565b610bd6846113e4565b949350505050565b610be6611146565b6001600160a01b0316610bf7610971565b6001600160a01b031614610c1d5760405162461bcd60e51b8152600401610575906120b4565b600d5461025961ffff90911610610c465760405162461bcd60e51b815260040161057590612213565b610c57610c51610971565b82611467565b600c8054610c67906001906122c6565b81548110610c8557634e487b7160e01b600052603260045260246000fd5b9060005260206000200154600c600183610c9f91906122c6565b81548110610cbd57634e487b7160e01b600052603260045260246000fd5b600091825260209091200155600c805480610ce857634e487b7160e01b600052603160045260246000fd5b6000828152602081208201600019908101829055909101909155600d805461ffff1691610d1483612344565b825461ffff9182166101009390930a928302919092021990911617905550600c54604051829033907f8587227cba5e4c595b198905190a948a31044ca1904827973a8763a7ab31ccbf90600090a450565b6001600160a01b03918216600090815260056020908152604080832093909416825291909152205460ff1690565b336000908152600b602052604081205461271011610dc35760405162461bcd60e51b815260040161057590611cb5565b600c546124b7811115610de85760405162461bcd60e51b815260040161057590611ec0565b60008111610e085760405162461bcd60e51b815260040161057590611c8d565b610e106108b3565b341015610e2f5760405162461bcd60e51b815260040161057590612245565b600081423384604051602001610e4793929190611b9e565b6040516020818303038152906040528051906020012060001c610e6a9190612381565b90506000600c8281548110610e8f57634e487b7160e01b600052603260045260246000fd5b90600052602060002001549050610ea63382611467565b600c610eb36001856122c6565b81548110610ed157634e487b7160e01b600052603260045260246000fd5b9060005260206000200154600c8381548110610efd57634e487b7160e01b600052603260045260246000fd5b600091825260209091200155600c805480610f2857634e487b7160e01b600052603160045260246000fd5b600082815260208082208301600019908101839055909201909255338252600b905260408120805491610f5a83612366565b90915550610f6b90506001846122c6565b604051829033907fe9d74c069bdd089c51c59f87e56dd8a7c35a793fdd64890c9178b516fc43379290600090a49250505090565b610fa7611146565b6001600160a01b0316610fb8610971565b6001600160a01b031614610fde5760405162461bcd60e51b8152600401610575906120b4565b6001600160a01b0381166110045760405162461bcd60e51b815260040161057590611d52565b61072481611350565b600b6020526000908152604090205481565b611027611146565b6001600160a01b0316611038610971565b6001600160a01b03161461105e5760405162461bcd60e51b8152600401610575906120b4565b8181600e5461106d919061227b565b61107791906122c6565b61108290600161227b565b600e81905561271010156110a85760405162461bcd60e51b815260040161057590611dce565b815b81811161062d57600c80546001810182556000919091527fdf6966c971051c3d54ec59162606531493a51404a002842f56009d7e5cf4a8c701819055806110f081612366565b9150506110aa565b600061110382611481565b806104b45750506001600160e01b03191660009081526007602052604090205460ff1690565b6000908152600260205260409020546001600160a01b0316151590565b3390565b600081815260046020526040902080546001600160a01b0319166001600160a01b038416908117909155819061117f82610798565b6001600160a01b03167f8c5be1e5ebec7d5bd14f71427d1e84f3dd0314c0f7b2291e5b200ac8c7c3b92560405160405180910390a45050565b60006111c382611129565b6111df5760405162461bcd60e51b815260040161057590611e74565b60006111ea83610798565b9050806001600160a01b0316846001600160a01b031614806112255750836001600160a01b031661121a8461054e565b6001600160a01b0316145b80610bd65750610bd68185610d65565b826001600160a01b031661124882610798565b6001600160a01b03161461126e5760405162461bcd60e51b8152600401610575906120e9565b6001600160a01b0382166112945760405162461bcd60e51b815260040161057590611dfd565b61129f83838361062d565b6112aa60008261114a565b6001600160a01b03831660009081526003602052604081208054600192906112d39084906122c6565b90915550506001600160a01b038216600090815260036020526040812080546001929061130190849061227b565b909155505060008181526002602052604080822080546001600160a01b0319166001600160a01b0386811691821790925591518493918716916000805160206123ee83398151915291a4505050565b600a80546001600160a01b038381166001600160a01b0319831681179093556040519116919082907f8be0079c531659141344cd1fd0a4f28419497f9722a3daafe3b4186f6b6457e090600090a35050565b6113ad848484611235565b6113b9848484846114c1565b610ab75760405162461bcd60e51b815260040161057590611d00565b6060600f80546104cb90612309565b60606113ef82611129565b61140b5760405162461bcd60e51b815260040161057590612132565b60006114156113d5565b905060008151116114355760405180602001604052806000815250611460565b8061143f846115dc565b604051602001611450929190611b6f565b6040516020818303038152906040525b9392505050565b6107948282604051806020016040528060008152506116f6565b60006001600160e01b031982166380ac58cd60e01b14806114b257506001600160e01b03198216635b5e139f60e01b145b806104b457506104b482611729565b60006114d5846001600160a01b0316611742565b156115d157836001600160a01b031663150b7a026114f1611146565b8786866040518563ffffffff1660e01b81526004016115139493929190611bd5565b602060405180830381600087803b15801561152d57600080fd5b505af192505050801561155d575060408051601f3d908101601f1916820190925261155a91810190611aa9565b60015b6115b7573d80801561158b576040519150601f19603f3d011682016040523d82523d6000602084013e611590565b606091505b5080516115af5760405162461bcd60e51b815260040161057590611d00565b805181602001fd5b6001600160e01b031916630a85bd0160e11b149050610bd6565b506001949350505050565b60608161160157506040805180820190915260018152600360fc1b60208201526104b7565b8160005b811561162b578061161581612366565b91506116249050600a83612293565b9150611605565b6000816001600160401b0381111561165357634e487b7160e01b600052604160045260246000fd5b6040519080825280601f01601f19166020018201604052801561167d576020820181803683370190505b5090505b8415610bd6576116926001836122c6565b915061169f600a86612381565b6116aa90603061227b565b60f81b8183815181106116cd57634e487b7160e01b600052603260045260246000fd5b60200101906001600160f81b031916908160001a9053506116ef600a86612293565b9450611681565b6117008383611748565b61170d60008484846114c1565b61062d5760405162461bcd60e51b815260040161057590611d00565b6001600160e01b031981166301ffc9a760e01b14919050565b3b151590565b6001600160a01b03821661176e5760405162461bcd60e51b815260040161057590611fe2565b61177781611129565b156117945760405162461bcd60e51b815260040161057590611d98565b6117a06000838361062d565b6001600160a01b03821660009081526003602052604081208054600192906117c990849061227b565b909155505060008181526002602052604080822080546001600160a01b0319166001600160a01b03861690811790915590518392906000805160206123ee833981519152908290a45050565b82805461182190612309565b90600052602060002090601f0160209004810192826118435760008555611889565b82601f1061185c57805160ff1916838001178555611889565b82800160010185558215611889579182015b8281111561188957825182559160200191906001019061186e565b50611895929150611899565b5090565b5b80821115611895576000815560010161189a565b60006001600160401b03808411156118c8576118c86123c1565b604051601f8501601f1916810160200182811182821017156118ec576118ec6123c1565b60405284815291508183850186101561190457600080fd5b8484602083013760006020868301015250509392505050565b80356001600160a01b03811681146104b757600080fd5b600060208284031215611945578081fd5b6114608261191d565b60008060408385031215611960578081fd5b6119698361191d565b91506106966020840161191d565b60008060006060848603121561198b578081fd5b6119948461191d565b92506119a26020850161191d565b9150604084013590509250925092565b600080600080608085870312156119c7578081fd5b6119d08561191d565b93506119de6020860161191d565b92506040850135915060608501356001600160401b038111156119ff578182fd5b8501601f81018713611a0f578182fd5b611a1e878235602084016118ae565b91505092959194509250565b60008060408385031215611a3c578182fd5b611a458361191d565b915060208301358015158114611a59578182fd5b809150509250929050565b60008060408385031215611a76578182fd5b611a7f8361191d565b946020939093013593505050565b600060208284031215611a9e578081fd5b8135611460816123d7565b600060208284031215611aba578081fd5b8151611460816123d7565b600060208284031215611ad6578081fd5b81356001600160401b03811115611aeb578182fd5b8201601f81018413611afb578182fd5b610bd6848235602084016118ae565b600060208284031215611b1b578081fd5b5035919050565b60008060408385031215611b34578182fd5b50508035926020909101359150565b60008151808452611b5b8160208601602086016122dd565b601f01601f19169290920160200192915050565b60008351611b818184602088016122dd565b835190830190611b958183602088016122dd565b01949350505050565b92835260609190911b6001600160601b0319166020830152603482015260540190565b6001600160a01b0391909116815260200190565b6001600160a01b0385811682528416602082015260408101839052608060608201819052600090611c0890830184611b43565b9695505050505050565b6001600160a01b03929092168252602082015260400190565b6020808252825182820181905260009190848201906040850190845b81811015611c6357835183529284019291840191600101611c47565b50909695505050505050565b901515815260200190565b6000602082526114606020830184611b43565b6020808252600e908201526d139bc81d1bdad95b9cc81b19599d60921b604082015260600190565b6020808252602b908201527f416c7265616479206d696e746564206d617820616d6f756e7420666f7220746860408201526a697320616464726573732160a81b606082015260800190565b60208082526032908201527f4552433732313a207472616e7366657220746f206e6f6e20455243373231526560408201527131b2b4bb32b91034b6b83632b6b2b73a32b960711b606082015260800190565b60208082526026908201527f4f776e61626c653a206e6577206f776e657220697320746865207a65726f206160408201526564647265737360d01b606082015260800190565b6020808252601c908201527b115490cdcc8c4e881d1bdad95b88185b1c9958591e481b5a5b9d195960221b604082015260600190565b6020808252601590820152744d617820746f6b656e7320706f70756c617465642160581b604082015260600190565b60208082526024908201527f4552433732313a207472616e7366657220746f20746865207a65726f206164646040820152637265737360e01b606082015260800190565b60208082526019908201527822a9219b99189d1030b8383937bb32903a379031b0b63632b960391b604082015260600190565b6020808252602c908201527f4552433732313a206f70657261746f7220717565727920666f72206e6f6e657860408201526b34b9ba32b73a103a37b5b2b760a11b606082015260800190565b6020808252601f908201527f476976656177617920746f6b656e73206e6f74206d696e746564207965742100604082015260600190565b60208082526038908201527f4552433732313a20617070726f76652063616c6c6572206973206e6f74206f776040820152771b995c881b9bdc88185c1c1c9bdd995908199bdc88185b1b60421b606082015260800190565b6020808252602a908201527f4552433732313a2062616c616e636520717565727920666f7220746865207a65604082015269726f206164647265737360b01b606082015260800190565b60208082526029908201527f4552433732313a206f776e657220717565727920666f72206e6f6e657869737460408201526832b73a103a37b5b2b760b91b606082015260800190565b6020808252818101527f4552433732313a206d696e7420746f20746865207a65726f2061646472657373604082015260600190565b60208082526031908201527f45524337323155524953746f726167653a2055524920717565727920666f72206040820152703737b732bc34b9ba32b73a103a37b5b2b760791b606082015260800190565b6020808252602c908201527f4552433732313a20617070726f76656420717565727920666f72206e6f6e657860408201526b34b9ba32b73a103a37b5b2b760a11b606082015260800190565b6020808252818101527f4f776e61626c653a2063616c6c6572206973206e6f7420746865206f776e6572604082015260600190565b60208082526029908201527f4552433732313a207472616e73666572206f6620746f6b656e2074686174206960408201526839903737ba1037bbb760b91b606082015260800190565b6020808252602f908201527f4552433732314d657461646174613a2055524920717565727920666f72206e6f60408201526e3732bc34b9ba32b73a103a37b5b2b760891b606082015260800190565b60208082526021908201527f4552433732313a20617070726f76616c20746f2063757272656e74206f776e656040820152603960f91b606082015260800190565b60208082526031908201527f4552433732313a207472616e736665722063616c6c6572206973206e6f74206f6040820152701ddb995c881b9bdc88185c1c1c9bdd9959607a1b606082015260800190565b602080825260189082015277105b1b0819da5d99585dd85e481391951cc81b5a5b9d195960421b604082015260600190565b602080825260139082015272496e73756666696369656e742066756e64732160681b604082015260600190565b90815260200190565b6000821982111561228e5761228e612395565b500190565b6000826122a2576122a26123ab565b500490565b60008160001904831182151516156122c1576122c1612395565b500290565b6000828210156122d8576122d8612395565b500390565b60005b838110156122f85781810151838201526020016122e0565b83811115610ab75750506000910152565b60028104600182168061231d57607f821691505b6020821081141561233e57634e487b7160e01b600052602260045260246000fd5b50919050565b600061ffff8083168181141561235c5761235c612395565b6001019392505050565b600060001982141561237a5761237a612395565b5060010190565b600082612390576123906123ab565b500690565b634e487b7160e01b600052601160045260246000fd5b634e487b7160e01b600052601260045260246000fd5b634e487b7160e01b600052604160045260246000fd5b6001600160e01b03198116811461072457600080fdfeddf252ad1be2c89b69c2b068fc378daa952ba7f163c4a11628f55a4df523b3efa26469706673582212203e7153e347183736543c06d365dde44078bb8d9b5be65ff631eb6a40b575c9d964736f6c63430008000033",
  "linkReferences": {},
  "deployedLinkReferences": {}
}