{
  "_format": "hh-sol-artifact-1",
  "contractName": "CryptoFlexPixelsNFT",
  "sourceName": "contracts/CryptoFlexPixelsNFT.sol",
  "abi": [
    {
      "inputs": [],
      "stateMutability": "nonpayable",
      "type": "constructor"
    },
    {
      "anonymous": false,
      "inputs": [
        {
          "indexed": true,
          "internalType": "address",
          "name": "owner",
          "type": "address"
        },
        {
          "indexed": true,
          "internalType": "address",
          "name": "approved",
          "type": "address"
        },
        {
          "indexed": true,
          "internalType": "uint256",
          "name": "tokenId",
          "type": "uint256"
        }
      ],
      "name": "Approval",
      "type": "event"
    },
    {
      "anonymous": false,
      "inputs": [
        {
          "indexed": true,
          "internalType": "address",
          "name": "owner",
          "type": "address"
        },
        {
          "indexed": true,
          "internalType": "address",
          "name": "operator",
          "type": "address"
        },
        {
          "indexed": false,
          "internalType": "bool",
          "name": "approved",
          "type": "bool"
        }
      ],
      "name": "ApprovalForAll",
      "type": "event"
    },
    {
      "anonymous": false,
      "inputs": [
        {
          "indexed": true,
          "internalType": "address",
          "name": "previousOwner",
          "type": "address"
        },
        {
          "indexed": true,
          "internalType": "address",
          "name": "newOwner",
          "type": "address"
        }
      ],
      "name": "OwnershipTransferred",
      "type": "event"
    },
    {
      "anonymous": false,
      "inputs": [
        {
          "indexed": true,
          "internalType": "address",
          "name": "from",
          "type": "address"
        },
        {
          "indexed": true,
          "internalType": "address",
          "name": "to",
          "type": "address"
        },
        {
          "indexed": true,
          "internalType": "uint256",
          "name": "tokenId",
          "type": "uint256"
        }
      ],
      "name": "Transfer",
      "type": "event"
    },
    {
      "anonymous": false,
      "inputs": [
        {
          "indexed": true,
          "internalType": "address",
          "name": "createdBy",
          "type": "address"
        },
        {
          "indexed": true,
          "internalType": "uint256",
          "name": "tokenId",
          "type": "uint256"
        },
        {
          "indexed": true,
          "internalType": "uint256",
          "name": "tokensLeft",
          "type": "uint256"
        }
      ],
      "name": "createdGiveAwayNFT",
      "type": "event"
    },
    {
      "anonymous": false,
      "inputs": [
        {
          "indexed": true,
          "internalType": "address",
          "name": "createdBy",
          "type": "address"
        },
        {
          "indexed": true,
          "internalType": "uint256",
          "name": "tokenId",
          "type": "uint256"
        },
        {
          "indexed": true,
          "internalType": "uint256",
          "name": "tokensLeft",
          "type": "uint256"
        }
      ],
      "name": "createdRandomNFT",
      "type": "event"
    },
    {
      "inputs": [
        {
          "internalType": "address",
          "name": "",
          "type": "address"
        }
      ],
      "name": "addressToMintCount",
      "outputs": [
        {
          "internalType": "uint256",
          "name": "",
          "type": "uint256"
        }
      ],
      "stateMutability": "view",
      "type": "function"
    },
    {
      "inputs": [
        {
          "internalType": "address",
          "name": "to",
          "type": "address"
        },
        {
          "internalType": "uint256",
          "name": "tokenId",
          "type": "uint256"
        }
      ],
      "name": "approve",
      "outputs": [],
      "stateMutability": "nonpayable",
      "type": "function"
    },
    {
      "inputs": [
        {
          "internalType": "uint256",
          "name": "",
          "type": "uint256"
        }
      ],
      "name": "availableTokens",
      "outputs": [
        {
          "internalType": "uint256",
          "name": "",
          "type": "uint256"
        }
      ],
      "stateMutability": "view",
      "type": "function"
    },
    {
      "inputs": [
        {
          "internalType": "address",
          "name": "owner",
          "type": "address"
        }
      ],
      "name": "balanceOf",
      "outputs": [
        {
          "internalType": "uint256",
          "name": "",
          "type": "uint256"
        }
      ],
      "stateMutability": "view",
      "type": "function"
    },
    {
      "inputs": [
        {
          "internalType": "uint256[]",
          "name": "tokenIds",
          "type": "uint256[]"
        }
      ],
      "name": "batchCreateGiveAway",
      "outputs": [],
      "stateMutability": "nonpayable",
      "type": "function"
    },
    {
      "inputs": [],
      "name": "create",
      "outputs": [
        {
          "internalType": "uint256",
          "name": "",
          "type": "uint256"
        }
      ],
      "stateMutability": "payable",
      "type": "function"
    },
    {
      "inputs": [
        {
          "internalType": "uint256",
          "name": "tokenId",
          "type": "uint256"
        }
      ],
      "name": "createGiveAway",
      "outputs": [],
      "stateMutability": "nonpayable",
      "type": "function"
    },
    {
      "inputs": [
        {
          "internalType": "uint256",
          "name": "tokenId",
          "type": "uint256"
        }
      ],
      "name": "getApproved",
      "outputs": [
        {
          "internalType": "address",
          "name": "",
          "type": "address"
        }
      ],
      "stateMutability": "view",
      "type": "function"
    },
    {
      "inputs": [],
      "name": "getAvailableTokensCount",
      "outputs": [
        {
          "internalType": "uint256",
          "name": "",
          "type": "uint256"
        }
      ],
      "stateMutability": "view",
      "type": "function"
    },
    {
      "inputs": [],
      "name": "getAvailableTokensList",
      "outputs": [
        {
          "internalType": "uint256[]",
          "name": "",
          "type": "uint256[]"
        }
      ],
      "stateMutability": "view",
      "type": "function"
    },
    {
      "inputs": [],
      "name": "getMintFee",
      "outputs": [
        {
          "internalType": "uint256",
          "name": "",
          "type": "uint256"
        }
      ],
      "stateMutability": "view",
      "type": "function"
    },
    {
      "inputs": [
        {
          "internalType": "address",
          "name": "owner",
          "type": "address"
        },
        {
          "internalType": "address",
          "name": "operator",
          "type": "address"
        }
      ],
      "name": "isApprovedForAll",
      "outputs": [
        {
          "internalType": "bool",
          "name": "",
          "type": "bool"
        }
      ],
      "stateMutability": "view",
      "type": "function"
    },
    {
      "inputs": [],
      "name": "name",
      "outputs": [
        {
          "internalType": "string",
          "name": "",
          "type": "string"
        }
      ],
      "stateMutability": "view",
      "type": "function"
    },
    {
      "inputs": [],
      "name": "owner",
      "outputs": [
        {
          "internalType": "address",
          "name": "",
          "type": "address"
        }
      ],
      "stateMutability": "view",
      "type": "function"
    },
    {
      "inputs": [
        {
          "internalType": "uint256",
          "name": "tokenId",
          "type": "uint256"
        }
      ],
      "name": "ownerOf",
      "outputs": [
        {
          "internalType": "address",
          "name": "",
          "type": "address"
        }
      ],
      "stateMutability": "view",
      "type": "function"
    },
    {
      "inputs": [
        {
          "internalType": "uint256",
          "name": "_start",
          "type": "uint256"
        },
        {
          "internalType": "uint256",
          "name": "_end",
          "type": "uint256"
        }
      ],
      "name": "populateAvailableTokens",
      "outputs": [],
      "stateMutability": "nonpayable",
      "type": "function"
    },
    {
      "inputs": [],
      "name": "renounceOwnership",
      "outputs": [],
      "stateMutability": "nonpayable",
      "type": "function"
    },
    {
      "inputs": [
        {
          "internalType": "uint256",
          "name": "_tokenId",
          "type": "uint256"
        },
        {
          "internalType": "uint256",
          "name": "_salePrice",
          "type": "uint256"
        }
      ],
      "name": "royaltyInfo",
      "outputs": [
        {
          "internalType": "address",
          "name": "receiver",
          "type": "address"
        },
        {
          "internalType": "uint256",
          "name": "royaltyAmount",
          "type": "uint256"
        }
      ],
      "stateMutability": "view",
      "type": "function"
    },
    {
      "inputs": [
        {
          "internalType": "address",
          "name": "from",
          "type": "address"
        },
        {
          "internalType": "address",
          "name": "to",
          "type": "address"
        },
        {
          "internalType": "uint256",
          "name": "tokenId",
          "type": "uint256"
        }
      ],
      "name": "safeTransferFrom",
      "outputs": [],
      "stateMutability": "nonpayable",
      "type": "function"
    },
    {
      "inputs": [
        {
          "internalType": "address",
          "name": "from",
          "type": "address"
        },
        {
          "internalType": "address",
          "name": "to",
          "type": "address"
        },
        {
          "internalType": "uint256",
          "name": "tokenId",
          "type": "uint256"
        },
        {
          "internalType": "bytes",
          "name": "_data",
          "type": "bytes"
        }
      ],
      "name": "safeTransferFrom",
      "outputs": [],
      "stateMutability": "nonpayable",
      "type": "function"
    },
    {
      "inputs": [
        {
          "internalType": "address",
          "name": "operator",
          "type": "address"
        },
        {
          "internalType": "bool",
          "name": "approved",
          "type": "bool"
        }
      ],
      "name": "setApprovalForAll",
      "outputs": [],
      "stateMutability": "nonpayable",
      "type": "function"
    },
    {
      "inputs": [
        {
          "internalType": "string",
          "name": "_newBaseURI",
          "type": "string"
        }
      ],
      "name": "setBaseURI",
      "outputs": [],
      "stateMutability": "nonpayable",
      "type": "function"
    },
    {
      "inputs": [
        {
          "internalType": "bytes4",
          "name": "interfaceId",
          "type": "bytes4"
        }
      ],
      "name": "supportsInterface",
      "outputs": [
        {
          "internalType": "bool",
          "name": "",
          "type": "bool"
        }
      ],
      "stateMutability": "view",
      "type": "function"
    },
    {
      "inputs": [],
      "name": "symbol",
      "outputs": [
        {
          "internalType": "string",
          "name": "",
          "type": "string"
        }
      ],
      "stateMutability": "view",
      "type": "function"
    },
    {
      "inputs": [
        {
          "internalType": "uint256",
          "name": "tokenId",
          "type": "uint256"
        }
      ],
      "name": "tokenURI",
      "outputs": [
        {
          "internalType": "string",
          "name": "",
          "type": "string"
        }
      ],
      "stateMutability": "view",
      "type": "function"
    },
    {
      "inputs": [
        {
          "internalType": "address",
          "name": "from",
          "type": "address"
        },
        {
          "internalType": "address",
          "name": "to",
          "type": "address"
        },
        {
          "internalType": "uint256",
          "name": "tokenId",
          "type": "uint256"
        }
      ],
      "name": "transferFrom",
      "outputs": [],
      "stateMutability": "nonpayable",
      "type": "function"
    },
    {
      "inputs": [
        {
          "internalType": "address",
          "name": "newOwner",
          "type": "address"
        }
      ],
      "name": "transferOwnership",
      "outputs": [],
      "stateMutability": "nonpayable",
      "type": "function"
    },
    {
      "inputs": [],
      "name": "withdraw",
      "outputs": [],
      "stateMutability": "payable",
      "type": "function"
    }
  ],
  "bytecode": "0x600d805461ffff191690556000600e5560c0604052601460808190527f697066733a2f2f6f75776f656972756f6961752f00000000000000000000000060a09081526200005091600f91906200020d565b503480156200005e57600080fd5b50604080518082018252601081526f43727970746f466c6578506978656c7360801b60208083019182528351808501909452600684526510d19413919560d21b908401528151919291620000b5916000916200020d565b508051620000cb9060019060208401906200020d565b505050620000e8620000e26200012760201b60201c565b6200012b565b620000fa63152a902d60e11b6200017d565b6200010b62357ab560e91b6200017d565b6200012162000119620001d8565b6005620001e7565b62000327565b3390565b600a80546001600160a01b038381166001600160a01b0319831681179093556040519116919082907f8be0079c531659141344cd1fd0a4f28419497f9722a3daafe3b4186f6b6457e090600090a35050565b6001600160e01b03198082161415620001b35760405162461bcd60e51b8152600401620001aa90620002b3565b60405180910390fd5b6001600160e01b0319166000908152600760205260409020805460ff19166001179055565b600a546001600160a01b031690565b600880546001600160a01b0319166001600160a01b039390931692909217909155600955565b8280546200021b90620002ea565b90600052602060002090601f0160209004810192826200023f57600085556200028a565b82601f106200025a57805160ff19168380011785556200028a565b828001600101855582156200028a579182015b828111156200028a5782518255916020019190600101906200026d565b50620002989291506200029c565b5090565b5b808211156200029857600081556001016200029d565b6020808252601c908201527f4552433136353a20696e76616c696420696e7465726661636520696400000000604082015260600190565b600281046001821680620002ff57607f821691505b602082108114156200032157634e487b7160e01b600052602260045260246000fd5b50919050565b61255380620003376000396000f3fe6080604052600436106101475760003560e01c806301ffc9a71461014c57806306fdde0314610182578063081812fc146101a4578063095ea7b3146101d157806323b872dd146101f357806327e65e6b146102135780632a55205a146102335780632dcd52f2146102615780633ccfd60b1461028357806342842e0e1461028b57806355f804b3146102ab5780636352211e146102cb57806370a08231146102eb578063715018a61461030b57806374894b79146103205780637a5caab3146103425780638da5cb5b1461035757806395d89b411461036c578063a22cb46514610381578063ad64d068146103a1578063b88d4fde146103c1578063c87b56dd146103e1578063d66fba4714610401578063e985e9c514610421578063efc81a8c14610441578063f2fde38b14610449578063f75da1b314610469578063fa21bd3e14610489575b600080fd5b34801561015857600080fd5b5061016c610167366004611b69565b6104a9565b6040516101799190611d4b565b60405180910390f35b34801561018e57600080fd5b506101976104bc565b6040516101799190611d56565b3480156101b057600080fd5b506101c46101bf366004611be6565b61054e565b6040516101799190611c9d565b3480156101dd57600080fd5b506101f16101ec366004611a9a565b61059a565b005b3480156101ff57600080fd5b506101f161020e3660046119ad565b610632565b34801561021f57600080fd5b506101f161022e366004611ac3565b61066a565b34801561023f57600080fd5b5061025361024e366004611bfe565b6106fb565b604051610179929190611cee565b34801561026d57600080fd5b50610276610730565b6040516101799190612359565b6101f1610736565b34801561029757600080fd5b506101f16102a63660046119ad565b6107b8565b3480156102b757600080fd5b506101f16102c6366004611ba1565b6107d3565b3480156102d757600080fd5b506101c46102e6366004611be6565b610825565b3480156102f757600080fd5b5061027661030636600461196a565b61085a565b34801561031757600080fd5b506101f161089e565b34801561032c57600080fd5b506103356108e9565b6040516101799190611d07565b34801561034e57600080fd5b50610276610940565b34801561036357600080fd5b506101c46109c0565b34801561037857600080fd5b506101976109cf565b34801561038d57600080fd5b506101f161039c366004611a60565b6109de565b3480156103ad57600080fd5b506102766103bc366004611be6565b610aac565b3480156103cd57600080fd5b506101f16103dc3660046119e8565b610acd565b3480156103ed57600080fd5b506101976103fc366004611be6565b610b0c565b34801561040d57600080fd5b506101f161041c366004611be6565b610c2d565b34801561042d57600080fd5b5061016c61043c366004611984565b610db4565b610276610de2565b34801561045557600080fd5b506101f161046436600461196a565b610fed565b34801561047557600080fd5b5061027661048436600461196a565b61105b565b34801561049557600080fd5b506101f16104a4366004611bfe565b61106d565b60006104b482611146565b90505b919050565b6060600080546104cb90612419565b80601f01602080910402602001604051908101604052809291908181526020018280546104f790612419565b80156105445780601f1061051957610100808354040283529160200191610544565b820191906000526020600020905b81548152906001019060200180831161052757829003601f168201915b5050505050905090565b600061055982611177565b61057e5760405162461bcd60e51b815260040161057590612115565b60405180910390fd5b506000908152600460205260409020546001600160a01b031690565b60006105a582610825565b9050806001600160a01b0316836001600160a01b031614156105d95760405162461bcd60e51b81526004016105759061222e565b806001600160a01b03166105eb611194565b6001600160a01b0316148061060757506106078161043c611194565b6106235760405162461bcd60e51b815260040161057590611fa4565b61062d8383611198565b505050565b61064361063d611194565b82611206565b61065f5760405162461bcd60e51b81526004016105759061226f565b61062d838383611283565b610672611194565b6001600160a01b03166106836109c0565b6001600160a01b0316146106a95760405162461bcd60e51b815260040161057590612161565b60005b81518110156106f7576106e58282815181106106d857634e487b7160e01b600052603260045260246000fd5b6020026020010151610c2d565b806106ef81612476565b9150506106ac565b5050565b6008546009546001600160a01b039091169060009060649061071d90856123b7565b61072791906123a3565b90509250929050565b600c5490565b61073e611194565b6001600160a01b031661074f6109c0565b6001600160a01b0316146107755760405162461bcd60e51b815260040161057590612161565b61077d6109c0565b6001600160a01b03166108fc479081150290604051600060405180830381858888f193505050501580156107b5573d6000803e3d6000fd5b50565b61062d83838360405180602001604052806000815250610acd565b6107db611194565b6001600160a01b03166107ec6109c0565b6001600160a01b0316146108125760405162461bcd60e51b815260040161057590612161565b80516106f790600f906020840190611863565b6000818152600260205260408120546001600160a01b0316806104b45760405162461bcd60e51b815260040161057590612046565b60006001600160a01b0382166108825760405162461bcd60e51b815260040161057590611ffc565b506001600160a01b031660009081526003602052604090205490565b6108a6611194565b6001600160a01b03166108b76109c0565b6001600160a01b0316146108dd5760405162461bcd60e51b815260040161057590612161565b6108e7600061139e565b565b6060600c80548060200260200160405190810160405280929190818152602001828054801561054457602002820191906000526020600020905b815481526020019060010190808311610923575050505050905090565b600c546000906124b710156109675760405162461bcd60e51b815260040161057590611f6d565b600c5466038d7ea4c68000906702c68af0bb140000906000836124b661098d82866123d6565b610999856124b76123d6565b6109a391906123b7565b6109ad91906123a3565b6109b7919061238b565b94505050505090565b600a546001600160a01b031690565b6060600180546104cb90612419565b6109e6611194565b6001600160a01b0316826001600160a01b03161415610a175760405162461bcd60e51b815260040161057590611eee565b8060056000610a24611194565b6001600160a01b03908116825260208083019390935260409182016000908120918716808252919093529120805460ff191692151592909217909155610a68611194565b6001600160a01b03167f17307eab39ab6107e8899845ad3d59bd9653f200f220920489ca2b5937696c3183604051610aa09190611d4b565b60405180910390a35050565b600c8181548110610abc57600080fd5b600091825260209091200154905081565b610ade610ad8611194565b83611206565b610afa5760405162461bcd60e51b81526004016105759061226f565b610b06848484846113f0565b50505050565b6060610b1782611177565b610b335760405162461bcd60e51b8152600401610575906120c4565b60008281526006602052604081208054610b4c90612419565b80601f0160208091040260200160405190810160405280929190818152602001828054610b7890612419565b8015610bc55780601f10610b9a57610100808354040283529160200191610bc5565b820191906000526020600020905b815481529060010190602001808311610ba857829003601f168201915b505050505090506000610bd6611423565b9050805160001415610bea575090506104b7565b815115610c1c578082604051602001610c04929190611c4b565b604051602081830303815290604052925050506104b7565b610c2584611432565b949350505050565b610c35611194565b6001600160a01b0316610c466109c0565b6001600160a01b031614610c6c5760405162461bcd60e51b815260040161057590612161565b600d5461025961ffff90911610610c955760405162461bcd60e51b8152600401610575906122c0565b610ca6610ca06109c0565b826114b5565b600c8054610cb6906001906123d6565b81548110610cd457634e487b7160e01b600052603260045260246000fd5b9060005260206000200154600c600183610cee91906123d6565b81548110610d0c57634e487b7160e01b600052603260045260246000fd5b600091825260209091200155600c805480610d3757634e487b7160e01b600052603160045260246000fd5b6000828152602081208201600019908101829055909101909155600d805461ffff1691610d6383612454565b825461ffff9182166101009390930a928302919092021990911617905550600c54604051829033907f8587227cba5e4c595b198905190a948a31044ca1904827973a8763a7ab31ccbf90600090a450565b6001600160a01b03918216600090815260056020908152604080832093909416825291909152205460ff1690565b336000908152600b6020526040812054600311610e115760405162461bcd60e51b815260040161057590611d91565b600c546124b7811115610e365760405162461bcd60e51b815260040161057590611f6d565b60008111610e565760405162461bcd60e51b815260040161057590611d69565b610e5e610940565b341015610e7d5760405162461bcd60e51b8152600401610575906122f5565b600081423384604051602001610e9593929190611c7a565b6040516020818303038152906040528051906020012060001c610eb89190612491565b90506000600c8281548110610edd57634e487b7160e01b600052603260045260246000fd5b90600052602060002001549050610ef433826114b5565b600c610f016001856123d6565b81548110610f1f57634e487b7160e01b600052603260045260246000fd5b9060005260206000200154600c8381548110610f4b57634e487b7160e01b600052603260045260246000fd5b600091825260209091200155600c805480610f7657634e487b7160e01b600052603160045260246000fd5b600082815260208082208301600019908101839055909201909255338252600b905260408120805491610fa883612476565b90915550610fb990506001846123d6565b604051829033907fe9d74c069bdd089c51c59f87e56dd8a7c35a793fdd64890c9178b516fc43379290600090a49250505090565b610ff5611194565b6001600160a01b03166110066109c0565b6001600160a01b03161461102c5760405162461bcd60e51b815260040161057590612161565b6001600160a01b0381166110525760405162461bcd60e51b815260040161057590611e2e565b6107b58161139e565b600b6020526000908152604090205481565b611075611194565b6001600160a01b03166110866109c0565b6001600160a01b0316146110ac5760405162461bcd60e51b815260040161057590612161565b8181600e546110bb919061238b565b6110c591906123d6565b6110d090600161238b565b600e81905561271010156110f65760405162461bcd60e51b815260040161057590612322565b815b81811161062d57600c80546001810182556000919091527fdf6966c971051c3d54ec59162606531493a51404a002842f56009d7e5cf4a8c7018190558061113e81612476565b9150506110f8565b6000611151826114cf565b806104b45750506001600160e01b03191660009081526007602052604090205460ff1690565b6000908152600260205260409020546001600160a01b0316151590565b3390565b600081815260046020526040902080546001600160a01b0319166001600160a01b03841690811790915581906111cd82610825565b6001600160a01b03167f8c5be1e5ebec7d5bd14f71427d1e84f3dd0314c0f7b2291e5b200ac8c7c3b92560405160405180910390a45050565b600061121182611177565b61122d5760405162461bcd60e51b815260040161057590611f21565b600061123883610825565b9050806001600160a01b0316846001600160a01b031614806112735750836001600160a01b03166112688461054e565b6001600160a01b0316145b80610c255750610c258185610db4565b826001600160a01b031661129682610825565b6001600160a01b0316146112bc5760405162461bcd60e51b815260040161057590612196565b6001600160a01b0382166112e25760405162461bcd60e51b815260040161057590611eaa565b6112ed83838361062d565b6112f8600082611198565b6001600160a01b03831660009081526003602052604081208054600192906113219084906123d6565b90915550506001600160a01b038216600090815260036020526040812080546001929061134f90849061238b565b909155505060008181526002602052604080822080546001600160a01b0319166001600160a01b0386811691821790925591518493918716916000805160206124fe83398151915291a4505050565b600a80546001600160a01b038381166001600160a01b0319831681179093556040519116919082907f8be0079c531659141344cd1fd0a4f28419497f9722a3daafe3b4186f6b6457e090600090a35050565b6113fb848484611283565b6114078484848461150f565b610b065760405162461bcd60e51b815260040161057590611ddc565b6060600f80546104cb90612419565b606061143d82611177565b6114595760405162461bcd60e51b8152600401610575906121df565b6000611463611423565b9050600081511161148357604051806020016040528060008152506114ae565b8061148d8461162a565b60405160200161149e929190611c4b565b6040516020818303038152906040525b9392505050565b6106f7828260405180602001604052806000815250611744565b60006001600160e01b031982166380ac58cd60e01b148061150057506001600160e01b03198216635b5e139f60e01b145b806104b457506104b482611777565b6000611523846001600160a01b0316611790565b1561161f57836001600160a01b031663150b7a0261153f611194565b8786866040518563ffffffff1660e01b81526004016115619493929190611cb1565b602060405180830381600087803b15801561157b57600080fd5b505af19250505080156115ab575060408051601f3d908101601f191682019092526115a891810190611b85565b60015b611605573d8080156115d9576040519150601f19603f3d011682016040523d82523d6000602084013e6115de565b606091505b5080516115fd5760405162461bcd60e51b815260040161057590611ddc565b805181602001fd5b6001600160e01b031916630a85bd0160e11b149050610c25565b506001949350505050565b60608161164f57506040805180820190915260018152600360fc1b60208201526104b7565b8160005b8115611679578061166381612476565b91506116729050600a836123a3565b9150611653565b6000816001600160401b038111156116a157634e487b7160e01b600052604160045260246000fd5b6040519080825280601f01601f1916602001820160405280156116cb576020820181803683370190505b5090505b8415610c25576116e06001836123d6565b91506116ed600a86612491565b6116f890603061238b565b60f81b81838151811061171b57634e487b7160e01b600052603260045260246000fd5b60200101906001600160f81b031916908160001a90535061173d600a866123a3565b94506116cf565b61174e8383611796565b61175b600084848461150f565b61062d5760405162461bcd60e51b815260040161057590611ddc565b6001600160e01b031981166301ffc9a760e01b14919050565b3b151590565b6001600160a01b0382166117bc5760405162461bcd60e51b81526004016105759061208f565b6117c581611177565b156117e25760405162461bcd60e51b815260040161057590611e74565b6117ee6000838361062d565b6001600160a01b038216600090815260036020526040812080546001929061181790849061238b565b909155505060008181526002602052604080822080546001600160a01b0319166001600160a01b03861690811790915590518392906000805160206124fe833981519152908290a45050565b82805461186f90612419565b90600052602060002090601f01602090048101928261189157600085556118d7565b82601f106118aa57805160ff19168380011785556118d7565b828001600101855582156118d7579182015b828111156118d75782518255916020019190600101906118bc565b506118e39291506118e7565b5090565b5b808211156118e357600081556001016118e8565b60006001600160401b03831115611915576119156124d1565b611928601f8401601f1916602001612362565b905082815283838301111561193c57600080fd5b828260208301376000602084830101529392505050565b80356001600160a01b03811681146104b757600080fd5b60006020828403121561197b578081fd5b6114ae82611953565b60008060408385031215611996578081fd5b61199f83611953565b915061072760208401611953565b6000806000606084860312156119c1578081fd5b6119ca84611953565b92506119d860208501611953565b9150604084013590509250925092565b600080600080608085870312156119fd578081fd5b611a0685611953565b9350611a1460208601611953565b92506040850135915060608501356001600160401b03811115611a35578182fd5b8501601f81018713611a45578182fd5b611a54878235602084016118fc565b91505092959194509250565b60008060408385031215611a72578182fd5b611a7b83611953565b915060208301358015158114611a8f578182fd5b809150509250929050565b60008060408385031215611aac578182fd5b611ab583611953565b946020939093013593505050565b60006020808385031215611ad5578182fd5b82356001600160401b0380821115611aeb578384fd5b818501915085601f830112611afe578384fd5b813581811115611b1057611b106124d1565b8381029150611b20848301612362565b8181528481019084860184860187018a1015611b3a578788fd5b8795505b83861015611b5c578035835260019590950194918601918601611b3e565b5098975050505050505050565b600060208284031215611b7a578081fd5b81356114ae816124e7565b600060208284031215611b96578081fd5b81516114ae816124e7565b600060208284031215611bb2578081fd5b81356001600160401b03811115611bc7578182fd5b8201601f81018413611bd7578182fd5b610c25848235602084016118fc565b600060208284031215611bf7578081fd5b5035919050565b60008060408385031215611c10578182fd5b50508035926020909101359150565b60008151808452611c378160208601602086016123ed565b601f01601f19169290920160200192915050565b60008351611c5d8184602088016123ed565b835190830190611c718183602088016123ed565b01949350505050565b92835260609190911b6001600160601b0319166020830152603482015260540190565b6001600160a01b0391909116815260200190565b6001600160a01b0385811682528416602082015260408101839052608060608201819052600090611ce490830184611c1f565b9695505050505050565b6001600160a01b03929092168252602082015260400190565b6020808252825182820181905260009190848201906040850190845b81811015611d3f57835183529284019291840191600101611d23565b50909695505050505050565b901515815260200190565b6000602082526114ae6020830184611c1f565b6020808252600e908201526d139bc81d1bdad95b9cc81b19599d60921b604082015260600190565b6020808252602b908201527f416c7265616479206d696e746564206d617820616d6f756e7420666f7220746860408201526a697320616464726573732160a81b606082015260800190565b60208082526032908201527f4552433732313a207472616e7366657220746f206e6f6e20455243373231526560408201527131b2b4bb32b91034b6b83632b6b2b73a32b960711b606082015260800190565b60208082526026908201527f4f776e61626c653a206e6577206f776e657220697320746865207a65726f206160408201526564647265737360d01b606082015260800190565b6020808252601c908201527b115490cdcc8c4e881d1bdad95b88185b1c9958591e481b5a5b9d195960221b604082015260600190565b60208082526024908201527f4552433732313a207472616e7366657220746f20746865207a65726f206164646040820152637265737360e01b606082015260800190565b60208082526019908201527822a9219b99189d1030b8383937bb32903a379031b0b63632b960391b604082015260600190565b6020808252602c908201527f4552433732313a206f70657261746f7220717565727920666f72206e6f6e657860408201526b34b9ba32b73a103a37b5b2b760a11b606082015260800190565b6020808252601f908201527f476976656177617920746f6b656e73206e6f74206d696e746564207965742100604082015260600190565b60208082526038908201527f4552433732313a20617070726f76652063616c6c6572206973206e6f74206f776040820152771b995c881b9bdc88185c1c1c9bdd995908199bdc88185b1b60421b606082015260800190565b6020808252602a908201527f4552433732313a2062616c616e636520717565727920666f7220746865207a65604082015269726f206164647265737360b01b606082015260800190565b60208082526029908201527f4552433732313a206f776e657220717565727920666f72206e6f6e657869737460408201526832b73a103a37b5b2b760b91b606082015260800190565b6020808252818101527f4552433732313a206d696e7420746f20746865207a65726f2061646472657373604082015260600190565b60208082526031908201527f45524337323155524953746f726167653a2055524920717565727920666f72206040820152703737b732bc34b9ba32b73a103a37b5b2b760791b606082015260800190565b6020808252602c908201527f4552433732313a20617070726f76656420717565727920666f72206e6f6e657860408201526b34b9ba32b73a103a37b5b2b760a11b606082015260800190565b6020808252818101527f4f776e61626c653a2063616c6c6572206973206e6f7420746865206f776e6572604082015260600190565b60208082526029908201527f4552433732313a207472616e73666572206f6620746f6b656e2074686174206960408201526839903737ba1037bbb760b91b606082015260800190565b6020808252602f908201527f4552433732314d657461646174613a2055524920717565727920666f72206e6f60408201526e3732bc34b9ba32b73a103a37b5b2b760891b606082015260800190565b60208082526021908201527f4552433732313a20617070726f76616c20746f2063757272656e74206f776e656040820152603960f91b606082015260800190565b60208082526031908201527f4552433732313a207472616e736665722063616c6c6572206973206e6f74206f6040820152701ddb995c881b9bdc88185c1c1c9bdd9959607a1b606082015260800190565b6020808252818101527f416c6c206769766561776179204e46547320616c7265616479206d696e746564604082015260600190565b602080825260139082015272496e73756666696369656e742066756e64732160681b604082015260600190565b6020808252601d908201527f4d617820746f6b656e7320616c726561647920706f70756c6174656421000000604082015260600190565b90815260200190565b6040518181016001600160401b0381118282101715612383576123836124d1565b604052919050565b6000821982111561239e5761239e6124a5565b500190565b6000826123b2576123b26124bb565b500490565b60008160001904831182151516156123d1576123d16124a5565b500290565b6000828210156123e8576123e86124a5565b500390565b60005b838110156124085781810151838201526020016123f0565b83811115610b065750506000910152565b60028104600182168061242d57607f821691505b6020821081141561244e57634e487b7160e01b600052602260045260246000fd5b50919050565b600061ffff8083168181141561246c5761246c6124a5565b6001019392505050565b600060001982141561248a5761248a6124a5565b5060010190565b6000826124a0576124a06124bb565b500690565b634e487b7160e01b600052601160045260246000fd5b634e487b7160e01b600052601260045260246000fd5b634e487b7160e01b600052604160045260246000fd5b6001600160e01b0319811681146107b557600080fdfeddf252ad1be2c89b69c2b068fc378daa952ba7f163c4a11628f55a4df523b3efa2646970667358221220b7ca57f17f977e026a46d92f54b4954d68011cd7f2fe0ebf33ab5b6f607ca7a764736f6c63430008000033",
  "linkReferences": {},
  "deployedLinkReferences": {}
}